:100000000C9416160C9440160C9440160C94401642
:100010000C9440160C9440160C9440160C94401608
:100020000C9440160C9440160C9440160C944016F8
:100030000C9440160C942F220C9440160C944016ED
:100040000C9440160C944A200C9449A50C9440162C
:100050000C9482950C94AC950C9440160C9440161C
:100060000C9440160C9440160C9440160C944016B8
:100070000C9440160C9440160C9440160C944016A8
:100080000C94DF290C9440160C9440164E414E49B6
:100090004E495459494E46CDCCCC3D0AD7233C1746
:1000A000B7D13877CC2B329595E6241FB14F0A0093
:1000B0000020410000C84200401C4620BCBE4CCA83
:1000C0001B0E5AAEC59D7400407A10F35A00A07200
:1000D0004E18090010A5D4E80000E8764817000083
:1000E000E40B54020000CA9A3B000000E1F5050051
:1000F0000080969800000040420F000000A086019A
:10010000000000102700000000E803000000006469
:1001100000000000000A00000000000100000000D4
:10012000002C76D888DC674F0823DFC1DFAE59E1A9
:10013000B1B796E5E3E453C63AE651997696E8E618
:10014000C28426EB898C9B62ED407C6FFCEFBC9CEB
:100150009F40F2BAA56FA5F490055A2AF75C936BFD
:100160006CF9676DC11BFCE0E40D47FEF520E6B5B8
:1001700000D0ED902E0300943577050080841E0892
:100180000000204E0A000000C80C333333330F98B0
:100190006E12831141EF8D2114893BE65516CFFE77
:1001A000E6DB18D1844B381BF77C1D901DA4BBE403
:1001B00024203284725E228100C9F124ECA1E53D45
:1001C0002770012C0190012701B0012201C0011DFF
:1001D00001F00118011002130130020E0160020942
:1001E0000190020401C002FF000003FA004003F581
:1001F000008003F000D003EB002004E6007004E16F
:1002000000E004DC004005D700C005D2004006CD68
:1002100000D006C8008007C3003008BE00F008B94F
:1002200000C009B400B00AAF00B00BAA00D00CA502
:1002300000000EA000500F9B00C0109600501291BD
:100240000000148C00C0158700B0178200B0197D23
:1002500000D01B7800001E730040206E00902269C1
:1002600000F024640040275F0090295A00E02B55DD
:1002700000102E500020304B0010324600E0334179
:100280000090353C001037370070383200A0392D0F
:1002900000B03A2800A03B2300603C1E00103D192E
:1002A00000903D1400103E0F00703E0A00C03E0555
:1002B00000003F0000403FFBFF803FF6FFC03FF1E2
:1002C000FF656E7175657565696E672022004B4923
:1002D0004C4C45442E200053544F505045442E2042
:1002E000005072696E7465722073746F707065640B
:1002F0002064756520746F206572726F72732E2092
:1003000046697820746865206572726F7220616E2C
:100310006420757365204D39393920746F207265FA
:1003200073746172742E202854656D7065726174E7
:100330007572652069732072657365742E2053652C
:1003400074206974206166746572207265737461CB
:100350007274696E67290A004E6F20436865636B8B
:1003600073756D2077697468206C696E65206E7591
:100370006D6265722C204C617374204C696E653A15
:1003800020004E6F20436865636B73756D2077693D
:100390007468206C696E65206E756D6265722C20C4
:1003A0004C617374204C696E653A20006368656324
:1003B0006B73756D206D69736D617463682C204C6F
:1003C000617374204C696E653A20004C696E65203B
:1003D0004E756D626572206973206E6F74204C617A
:1003E0007374204C696E65204E756D6265722B3199
:1003F0002C204C617374204C696E653A20004D319D
:100400003130004D33310053442072656164206502
:1004100072726F720A00446F6E65207072696E743A
:10042000696E672066696C650A0020496E76616CAA
:10043000696420657874727564657220000000003C
:1004400000000000000000000000006B4300006B93
:100450004300007A4342696C696E656172204C65A5
:1004600076656C696E6720477269643A0A002028D5
:1004700044525952554E2900473239204175746F04
:1004800020426564204C6576656C696E67003F208C
:10049000284C2C522C462C4229206F7574206F66F4
:1004A00020626F756E64732E0A003F2856296572AC
:1004B000626F7365206C6576656C20697320696D69
:1004C000706C61757369626C652028302D34292E3B
:1004D0000A00426164205A2076616C75650A004EFC
:1004E0006F2062696C696E65617220677269640A67
:1004F000004D343820526573756C743A20257300B2
:100500005374616E646172642044657669617469D4
:100510006F6E3A200046696E6973686564210A004F
:100520003F2028582C5929206F7574206F6620624F
:100530006F756E64732E0A004D34382054657374E1
:100540002052756E6E696E672E2E2E0A00205A3A62
:100550000020593A0020436F756E7420583A0020ED
:10056000453A00205A3A0020593A00583A0023648C
:100570006566696E652044454641554C545F4B6441
:10058000200023646566696E652044454641554CEC
:10059000545F4B69200023646566696E652044459D
:1005A0004641554C545F4B702000504944204175E2
:1005B000746F74756E652066696E69736865642111
:1005C0002050757420746865206C617374204B70C2
:1005D0002C204B6920616E64204B6420636F6E7326
:1005E00074616E74732066726F6D2062656C6F77D4
:1005F00020696E746F20436F6E66696775726174EF
:10060000696F6E2E680A00504944204175746F74FA
:10061000756E65206661696C6564212074696D651D
:100620006F75740A00453120544845524D414C20A5
:1006300052554E4157415900546865726D616C20A6
:1006400052756E6177617900453120486561746942
:100650006E67206661696C65640048656174696EE7
:1006600067206661696C6564005049442041757477
:100670006F74756E65206661696C656421205465D0
:100680006D706572617475726520746F6F20686932
:1006900067680A00204B643A2000204B693A20002A
:1006A000204B703A20000A20436C61737369632009
:1006B000504944200A002054753A2000204B753AD6
:1006C0002000206D61783A2000206D696E3A20008C
:1006D00020643A200020626961733A200050494446
:1006E000204175746F74756E652073746172740A3D
:1006F00000504944204175746F74756E65206661C1
:10070000696C6564212054656D70657261747572E1
:100710006520746F6F20686967680A00504944203B
:100720004175746F74756E65206661696C656421CE
:1007300020426164206578747275646572206E75FC
:100740006D6265720A00496E736572742066696C29
:10075000616D656E7420616E6420707265737320C4
:10076000627574746F6E0A005072657373206275DF
:1007700074746F6E20746F2068656174206E6F7A78
:100780007A6C650A00496E736572742066696C61E3
:100790006D656E7420616E64207072657373206283
:1007A0007574746F6E20286F72204D313038290AAD
:1007B00000536C6565702E2E2E00486F6D652058B5
:1007C000592066697273740A00486F6D6520585924
:1007D00020666972737400205A3A200020593A202A
:1007E0000042656420583A20004D65736820706FA0
:1007F000696E742063616E6E6F742062652072652D
:10080000736F6C7665640A00436C69636B20746F68
:1008100020726573756D652E2E2E004E6F206D6FE4
:1008200076652E00456E642066696C65206C697380
:10083000740A00426567696E2066696C65206C69A0
:1008400073740A004D31323500286E6F2066696C72
:1008500065290043757272656E742066696C653A2D
:1008600020005344207072696E74696E672062794B
:10087000746520004E6F74205344207072696E744A
:10088000696E670A0044656C6574696F6E20666105
:10089000696C65642C2046696C653A200046696C79
:1008A000652064656C657465643A0025697300258C
:1008B000696D20256973002569682025696D2025EB
:1008C000697300256964202569682025696D2025E4
:1008D00069730025697920256964202569682025C8
:1008E000696D20256973005072696E742074696D9A
:1008F000653A20004B494C4C45442E20006F6B005C
:1009000020573A004520436F6F6C696E672E2E2E7C
:1009100000452048656174696E672E2E2E002057B1
:100920003A0042656420636F6F6C696E672E2E2EED
:10093000004265642068656174696E672E2E2E0022
:10094000436170654665617220505045204F666670
:100950002E002C20002C20004649524D5741524574
:100960005F4E414D453A4D61726C696E205448337B
:10097000442055312E52322E413820534F55524388
:10098000455F434F44455F55524C3A2050524F54B7
:100990004F434F4C5F56455253494F4E3A312E30DC
:1009A000204D414348494E455F545950453A4361B3
:1009B0007065466561722050504520455854525527
:1009C0004445525F434F554E543A312055554944A2
:1009D0003A0A002F2F200020540020520041636368
:1009E000656C65726174696F6E3A205000574152B0
:1009F0004E494E4721204C6F77205A204A65726B32
:100A0000206D6179206C65616420746F20756E774C
:100A1000616E746564207061757365732E0A0020C1
:100A2000466C6F773A20003A200020536572766F4B
:100A30002000206F7574206F662072616E67650AF2
:100A400000536572766F200050726F6265205A20E5
:100A50004F66667365743A2000496E76616C69640E
:100A60002065787472756465720A0020643A00200B
:100A7000693A0020703A004E6F2063617365206C04
:100A8000696768740A00426564204C6576656C6924
:100A90006E6720004661696C656420746F20656E26
:100AA00061626C6520426564204C6576656C696E98
:100AB000670A00454550524F4D204F4B0A003F5AA0
:100AC000206F7574206F662072616E676520282D17
:100AD0003520746F2031290A003A200050726F626D
:100AE00065205A204F6666736574004163746976A9
:100AF000652045787472756465723A2000496E7697
:100B0000616C69642065787472756465720A00525C
:100B10006573656E643A20006F6B0020746F6F2000
:100B20006C6F6E6720657874727573696F6E207074
:100B3000726576656E7465640A0020636F6C64206C
:100B4000657874727573696F6E2070726576656E04
:100B50007465640A00627573793A20706175736513
:100B60006420666F7220696E7075740A0062757316
:100B7000793A2070617573656420666F72207573B1
:100B800065720A00627573793A2070726F636573DB
:100B900073696E670A00506C6561736520726573D6
:100BA0006574005052494E5445522048414C5445BA
:100BB00044005072696E7465722068616C7465647B
:100BC0002E206B696C6C28292063616C6C65642134
:100BD0000A0000000000000000000000000000000B
:100BE00020420000204200008040000000005761C9
:100BF000726E696E673A20486F6D696E6720427544
:100C00006D702044697669736F72203C20310A0050
:100C10000202040000A0400000A0400000004000CC
:100C2000006B4300006B4300007A43FFFFFF4D362B
:100C300030303A20546F6F20636F6C6400486F74DB
:100C4000656E6420746F6F20636F6C640A007C3C77
:100C50003E5E2B3D3F2F5B5D3B2C2A225C004572A4
:100C6000726F722077726974696E6720746F2045A5
:100C70004550524F4D210A00454550524F4D20647A
:100C800061746173697A65206572726F722E0A00F1
:100C9000290A002062797465733B20637263200027
:100CA00053657474696E67732053746F7265642042
:100CB0002800290A002062797465733B20637263FF
:100CC00020002073746F7265642073657474696E9C
:100CD00067732072657472696576656420280020E8
:100CE0002863616C63756C6174656429210A002056
:100CF000213D2000454550524F4D20435243206D29
:100D000069736D61746368202D202873746F726538
:100D1000642920002053697A653A2000496E646591
:100D2000783A2000204D61726C696E3D5635362947
:100D30000A0028454550524F4D3D00454550524F01
:100D40004D2076657273696F6E206D69736D617485
:100D50006368200048617264636F64656420446561
:100D60006661756C742053657474696E6773204C8A
:100D70006F616465640A00F401000020030000F460
:100D800001000088130000000048430000484300B1
:100D9000007041000048420000A0420000A0420054
:100DA00000C8430000BE423A0A0020286D6D2900A9
:100DB00020204D383531205A005A2D50726F62650F
:100DC000204F66667365740020440020490020208F
:100DD0004D3330312050005049442073657474699C
:100DE0006E67733A0A00205A00204A0020204732DA
:100DF00039205720490020204D3432302053004103
:100E000075746F20426564204C6576656C696E6709
:100E10003A0A00204500205A00205900205800209E
:100E2000540020530020204D323035205100204501
:100E30003C6D61785F655F6A65726B3E0020583C6F
:100E40006D61785F785F6A65726B3E20593C6D61B9
:100E5000785F795F6A65726B3E205A3C6D61785F9E
:100E60007A5F6A65726B3E00416476616E636564A9
:100E70003A20513C6D696E5F7365676D656E745F96
:100E800074696D655F75733E20533C6D696E5F6676
:100E9000656564726174653E20543C6D696E5F7473
:100EA000726176656C5F66656564726174653E004B
:100EB00020540020520020204D3230342050004178
:100EC0006363656C65726174696F6E2028756E6905
:100ED00074732F7332293A20503C7072696E745FBC
:100EE000616363656C3E20523C7265747261637429
:100EF0005F616363656C3E20543C74726176656C1F
:100F00005F616363656C3E0A00204500205A002043
:100F1000590020204D3230312058004D6178696DE4
:100F2000756D20416363656C65726174696F6E20D5
:100F300028756E6974732F7332293A0A00204500B0
:100F4000205A0020590020204D3230332058004DC7
:100F50006178696D756D206665656472617465732D
:100F60002028756E6974732F73293A0A0020450092
:100F7000205A0020590020204D3932205800537447
:100F80006570732070657220756E69743A0A00206E
:100F9000204D3134392043203B20556E6974732035
:100FA000696E2043656C736975730A0020204732AF
:100FB00031202020203B00486F6D696E67206661FC
:100FC000696C656400545249474745524544006F77
:100FD00070656E003A20007A5F6D696E00795F6D12
:100FE000696E00785F6D696E005265706F7274692A
:100FF0006E6720656E6473746F70207374617475AE
:10100000730A0020746F6F206C6F6E6720657874B0
:10101000727573696F6E2070726576656E74656443
:101020000A0020636F6C6420657874727573696F51
:101030006E2070726576656E7465640A0024F4D45F
:101040003050C38E20C2A24017828B7011127A9149
:101050000D816CD90AA861E108C758660761514340
:10106000061E4B5D05C145A7041A411104093D98B0
:1010700003713931034036DB0265339102D43054B9
:1010800002802E1D02632CEE01752AC501B028A036
:1010900001102781018F2564012B244B01E02234AC
:1010A00001AC211F018D200D01801FFC00841EED6D
:1010B00000971DDF00B81CD200E61BC600201BBC39
:1010C00000641AB200B219A8000A19A0006A18999F
:1010D00000D117910040178B00B516840031167EA1
:1010E00000B31579003A157300C7146F0058146ADD
:1010F00000EE1366008813630025135E00C7125BC1
:10110000006C12570015125400C111510070114F9C
:101110000021114B00D61049008D104700461044A5
:101120000002104200C00F4000800F3E00420F3C02
:1011300000060F3B00CB0E3800930E37005C0E35D7
:1011400000270E3400F30D3200C10D3100900D3038
:1011500000600D2E00320D2D00050D2C00D90C2B3A
:1011600000AE0C2900850C29005C0C2700350C27EB
:10117000000E0C2600E80B2400C40B2400A00B2357
:10118000007D0B23005A0B2100390B2100180B2086
:1011900000F80A1F00D90A1E00BB0A1E009D0A1D86
:1011A00000800A1D00630A1C00470A1B002C0A1B52
:1011B00000110A1A00F7091A00DD091900C40919FB
:1011C00000AB091900920917007B09180063091781
:1011D000004C09160036091600200916000A0915E8
:1011E00000F5081500E0081400CC081400B8081435
:1011F00000A4081400900813007D0812006B081367
:101200000058081200460812003408110023081183
:10121000001208110001081100F0071000E007108B
:1012200000D0071000C0071000B0070F00A1071082
:101230000091070E0083070F0074070F0065070E6B
:101240000057070E0049070E003B070D002E070E42
:101250000020070D0013070D0006070D00F9060C0E
:1012600000ED060D00E0060C00D4060C00C8060CCC
:1012700000BC060C00B0060C00A4060B0099060C7E
:10128000008D060B0082060B0077060B006C060B28
:101290000061060A0057060B004C060A0042060AC7
:1012A0000038060A002E060A0024060A001A060A5A
:1012B000001006090007060A00FD050900F40509EB
:1012C00000EB050900E2050900D9050900D0050970
:1012D00000C7050900BE050900B5050800AD0508F1
:1012E00000A50509009C050800940508008C050868
:1012F00000840508007C050800740508006C0507DB
:1013000000650508005D050700560508004E050745
:1013100000470507004005080038050700310507AC
:10132000002A050700230507001C0506001605070F
:10133000000F0507000805060002050700FB04066C
:1013400000F5040700EE040600E8040600E20407C6
:1013500000DB040600D5040600CF040600C904061D
:1013600000C3040600BD040600B7040600B104056E
:1013700000AC040600A6040600A00405009B0406B9
:101380000095040500900406008A04050085040504
:1013900000800406007A0405007504050070040549
:1013A000006B04050066040500610405005C04058B
:1013B0000057040500520405004D040500480405CB
:1013C00000430405003E0404003A0405003504050A
:1013D00000300404002C0405002704040023040545
:1013E000001E0404001A040400160405001104047D
:1013F000000D0404000904050004040400000404B2
:1014000000FC030400F8030400F4030400F00304E8
:1014100000EC030400E8030400E4030400E0030418
:1014200000DC030400D8030400D4030400D0030448
:1014300000CC030400C8030300C503030024F40424
:10144000D9201BC40C5C0E9804C4095F02650771A7
:1014500001F405F900FB04B30048048700C10369E7
:10146000005803550003034500BE023A00840231D0
:101470000053022A002902250004022000E4011C76
:1014800000C8011900AF011700980114008401136E
:1014900000710110006101100051010E0043010DA7
:1014A0000036010B002B010B0020010B0015010978
:1014B000000C01090003010800FB000800F300080C
:1014C00000EB000700E4000600DE000600D800067E
:1014D00000D2000600CC000500C7000500C20005D0
:1014E00000BD000400B9000400B5000400B1000410
:1014F00000AD000400A9000400A5000300A2000341
:10150000009F0004009B0003009800030095000268
:101510000093000300900003008D0002008B000385
:10152000008800020086000200840003008100029F
:10153000007F0002007D0002007B000200790002B3
:1015400000770001007600020074000200720001C2
:1015500000710002006F0002006D0001006C0002CB
:10156000006A0001006900020067000100660001D6
:1015700000650001006400020062000100610001DA
:1015800000600001005F0002005D0001005C0001DE
:10159000005B0001005A00010059000100580001E1
:1015A00000570001005600010055000100540001E1
:1015B00000530000005300010052000100510001DF
:1015C00000500001004F0001004E0000004E0001DD
:1015D000004D0001004C0001004B0000004B0001D9
:1015E000004A0001004900010048000000480001D5
:1015F00000470001004600000046000100450000D1
:1016000000450001004400010043000000430001C8
:1016100000420000004200010041000000410001C2
:1016200000400001003F0000003F0001003E0000BC
:10163000003E0001003D0000003D0001003C0000B4
:10164000003C0000003C0001003B0000003B0001AA
:10165000003A0000003A00010039000000390001A2
:10166000003800000038000000380001003700009A
:10167000003700010036000000360000003600018F
:101680000035000000350000003500010034000086
:10169000003400000034000100330000003300007B
:1016A000003300010032000000320000003200016F
:1016B0000031000000310000003100010030000066
:1016C0000030000000300001002F0000002F00005B
:1016D000002F0000002F0001002E0000002E00004F
:1016E000002E0001002D0000002D0000002D000044
:1016F000002D0001002C0000002C0000002C000038
:10170000002C0001002B0000002B0000002B00002B
:10171000002B0001002A0000002A0000002A00001F
:10172000002A000100290000002900000029000013
:101730000029000000290001002800000028000006
:1017400000280000002800000028000100270000F9
:1017500000270000002700000027000000270001EC
:1017600000260000002600000026000000260000E1
:1017700000260001002500000025000000250000D3
:1017800000250000002500000025000100240000C5
:1017900000240000002400000024000000240001B8
:1017A00000230000002300000023000000230000AD
:1017B000002300000023000000230001002200009D
:1017C0000022000000220000002200000022000091
:1017D0000022000100210000002100000021000083
:1017E0000021000000210000002100000021000174
:1017F0000020000000200000002000000020000069
:101800000020000000200000002000000020000157
:10181000001F0000001F0000001F0000001F00004C
:10182000001F0000001F0000001F0001001E00003C
:10183000001E0000001E0000001E00000004370013
:10184000001E290000511B00005810000010090064
:1018500000CC0400007802000041010000626564D1
:101860000A002C2073797374656D2073746F707027
:10187000656421204865617465725F49443A2000BF
:101880004265642068656174696E67206661696C91
:1018900065640048656174696E67206661696C659E
:1018A000640045312048656174696E67206661692E
:1018B0006C65640048656174696E67206661696C77
:1018C0006564001000C90210012C01400122017062
:1018D000011801B0010E01F00104015002FA00B03C
:1018E00002F0003003E600D003DC009004D2007068
:1018F00005C800A006BE000008B400B009AA00D0C8
:101900000BA000600E960060118C00001582002074
:10191000197800C01D6E00A0226400B0275A009004
:101920002C500000314600E0343C0010383200906A
:101930003A2800603C1E00A03D1400803E0A0020B2
:101940003F0000453120544845524D414C205255EE
:101950004E415741590042454420544845524D415B
:101960004C2052554E4157415900546865726D6183
:101970006C2052756E617761790045312045727235
:101980003A204D415854454D50004572723A204D11
:10199000415854454D5020424544004D415854450E
:1019A0004D50207472696767657265640045312027
:1019B0004572723A204D494E54454D500045727261
:1019C0003A204D494E54454D5020424544004D4922
:1019D0004E54454D502074726967676572656400A6
:1019E000202F002042403A0020403A0025753A2539
:1019F00030327500253032753A2530327500257544
:101A00006420253032753A25303275005A0059006D
:101A10005800092000000000000000000000000045
:101A2000003FFFF000000000000000000000000088
:101A300038007000000000000000000000000030CE
:101A4000FC3000000000000000000000000020FC4E
:101A500010000000000000000000000000207810CE
:101A60000000000000000000000000002030100016
:101A700000000000000000000000002C00D03FC06B
:101A8000000000000000002082002E31D07FE00026
:101A90000000000000001041002F7BD07FE000001C
:101AA00000000000001041002F7BD07FE00000000C
:101AB000000000002082002E31D03FC00000000056
:101AC0000000004104002C00D03FC00000000000D6
:101AD00000008208002030107FE0000000000000BD
:101AE000008208002078107FE00000000000000065
:101AF00041040020FC107FE00000000000000020F6
:101B0000820030FC301F8000000000000000000058
:101B1000003800700F0000000000000000FFFFC050
:101B20003FFFF0060000000000000000FFFFC000C3
:101B300000000000000000000000000000003FFF67
:101B4000F0000000000000000000000000380070FD
:101B5000000000000000000000000000318630009E
:101B600000000000000000000000002387100000BB
:101B70000000000000000000000027879000000027
:101B80000000000000000000002F87D000000000CF
:101B900000000000000000002F03D03FC000000044
:101BA000000000002082002030107FE000000000D4
:101BB0000000001041002078107FE00000000000CD
:101BC00000001041002078107FE0000000000000BD
:101BD000002082002030103FC00000000000000004
:101BE0004104002F03D03FC000000000000000822D
:101BF00008002F87D07FE00000000000000082086E
:101C0000002787907FE000000000000000410400F2
:101C10002387107FE00000000000000020820031D8
:101C200086301F8000000000000000000000380027
:101C3000700F0000000000000000FFFFC03FFFF039
:101C4000060000000000000000FFFFC0000000438D
:101C5000617065466561722050504520526561642F
:101C6000792E005072696E74696E672E2E2E0050A8
:101C700072696E742070617573656400436D643AB7
:101C80002053572D4D6F646500436D643A205374A3
:101C90006F7700436D643A204465706C6F79004340
:101CA0006D643A2053656C662D5465737400436D02
:101CB000643A205265736574004D61696E004D3160
:101CC0003235004D3234005072696E742061626F9B
:101CD00072746564004D3231004E6F2053442063AE
:101CE000617264004368616E6765205344206361DC
:101CF0007264004D3231005072696E742066726FEA
:101D00006D2053440053746F70207072696E7400BC
:101D1000526573756D65207072696E7400496E69E5
:101D2000742E2053442063617264005061757365A2
:101D3000207072696E7400436F6E74726F6C005025
:101D40007265706172650054756E6500496E666FEC
:101D50002073637265656E000E000E000E000E00AB
:101D60000E000E000E000E007FC03F801F000E0010
:101D7000040004000E001F003F807FC00E000E0014
:101D80000E000E000E000E000E000E0003F8000FF5
:101D9000FE001E0F00380700380380700380700FAC
:101DA000E07007C070038070010070000038000010
:101DB0003807001E0F000FFE0003F80000FE0003AE
:101DC000FF800783C00E01C00E00E01C00E07F0012
:101DD000E03E00E01C00E00800E00000E00001C080
:101DE0000E01C00F078007FF0001FC00FFFFFF7F0F
:101DF00080FFC0FFC0FFC07F807F80FFC0FFC0FFAB
:101E0000C03F001E000C0050726F6265205A204FC8
:101E10006666736574004368616E67652066696C09
:101E2000616D656E74004368616E67652066696CFC
:101E3000616D656E74004D36303020423000507256
:101E40006F6265205A204F666673657400466C6F3A
:101E50007700466C6F770046616E2073706565642D
:101E60000046616E207370656564004265640042DF
:101E70006564004E6F7A7A6C65004E6F7A7A6C6595
:101E8000005370656564005370656564004D616959
:101E90006E005072656865617420504C4120456E3B
:101EA00064005072656865617420504C4120426541
:101EB00064005072656865617420504C4100507236
:101EC0006570617265005072656865617420414299
:101ED0005320456E6400507265686561742041420C
:101EE0005320426564005072656865617420414208
:101EF000530050726570617265005072656865616B
:101F00007420414253005072656865617420504CE2
:101F10004100436F6F6C646F776E004368616E675A
:101F2000652066696C616D656E74004368616E67FB
:101F3000652066696C616D656E74004D36303020C9
:101F400042300044697361626C652073746570701F
:101F5000657273004D38340052756E204D34382050
:101F600054657374004732380A4D3438205031308C
:101F700000486F6D65205A00473238205A00486F7C
:101F80006D65205900473238205900486F6D652033
:101F900058004732382058004175746F20686F6DC3
:101FA0006500473238004D6F7665206178697300AF
:101FB0004D61696E004D6F76652058004D6F7665F6
:101FC0002059004D6F7665205A004578747275640B
:101FD0006572004D6F766520302E316D6D004D6F4E
:101FE000766520316D6D004D6F76652031306D6DF9
:101FF000004D6F766520617869730045787472755D
:10200000646572004D6F7665205A004D6F766520CD
:1020100059004D6F76652058004578747275646577
:1020200072004D6F7665205A004D6F76652059001D
:102030004D6F766520580050726570617265005270
:102040006573657420454550524F4D00436F6E7463
:10205000726F6C00526573657420454550524F4D48
:102060000053746F72652073657474696E677300D2
:10207000424C546F756368004D6F74696F6E005405
:10208000656D7065726174757265004D61696E0091
:102090004D333033205531204525692053256900C3
:1020A000504944204175746F74756E650050494401
:1020B000204175746F74756E65005049442D44005D
:1020C0005049442D44005049442D49005049442D65
:1020D00049005049442D50005049442D500046615C
:1020E0006E2073706565640046616E20737065656F
:1020F000640042656400426564004E6F7A7A6C65E4
:10210000004E6F7A7A6C6500436F6E74726F6C006C
:1021100050726F6265205A204F6666736574004383
:102120006F6E74726F6C0043616E6E6F7420656EBB
:10213000746572207375626469723A2000022E2EF3
:10214000000152656672657368004D61696E004DED
:1021500037303220542564004D3630302042302054
:10216000542564004D373032203B2564004D373014
:102170003120542564004368616E67652066696C90
:10218000616D656E740050726568656174204142CE
:1021900053005072656865617420504C410043687B
:1021A000616E67652066696C616D656E7400505282
:1021B000494E542050415553454400554E4C4F41D3
:1021C000442046494C414D454E54004C4F4144201B
:1021D00046494C414D454E54005075726765206D1F
:1021E0006F726500436F6E74696E7565005245537A
:1021F000554D45204F5054494F4E533A0020204EE4
:102200006F7A7A6C653A20006368616E6765006F6B
:1022100066207468652066696C616D656E74005730
:1022200061697420666F722073746172740020207B
:102230004E6F7A7A6C653A2000200066696C616D99
:10224000656E7420756E6C6F6164005761697420EF
:10225000666F720020204E6F7A7A6C653A200020FB
:1022600000506C6561736520776169742E2E2E00B5
:1022700048656174696E67206E6F7A7A6C650020BC
:10228000204E6F7A7A6C653A200020006865617490
:10229000206E6F7A7A6C652E0050726573732062BF
:1022A0007574746F6E20746F0020204E6F7A7A6C94
:1022B000653A2000746F20636F6E74696E75652EC9
:1022C0002E2E00616E6420707265737320627574C7
:1022D000746F6E00496E736572742066696C616D0F
:1022E000656E740020204E6F7A7A6C653A2000206B
:1022F0000066696C616D656E74206C6F6164005777
:1023000061697420666F720020204E6F7A7A6C6566
:102310003A2000200066696C616D656E74207075EE
:10232000726765005761697420666F7200746F2070
:10233000726573756D65005761697420666F7220F0
:102340007072696E7400000000010200090A00004A
:102350000000040308070000000000000000000067
:102360000000000000002020506C616E6E6572421B
:10237000756666657242797465733A20002046720C
:102380006565204D656D6F72793A2000436F6D7001
:10239000696C65643A204D617920203420323032F6
:1023A000300A00207C20417574686F723A202854EE
:1023B000483344290A0000204C617374205570642E
:1023C000617465643A2000544833442055312E52DC
:1023D000322E41380A004D61726C696E0020536FD5
:1023E0006674776172652052657365740A002057C0
:1023F00061746368646F672052657365740A0020B6
:1024000042726F776E206F75742052657365740A1F
:10241000002045787465726E616C20526573657436
:102420000A00506F77657255700A00737461727498
:102430000A006175746F25692E67006572726F728C
:102440002077726974696E6720746F2066696C65A5
:102450000A00456E6473746F7073202563202563D2
:1024600020256320256300205A3A0020593A002095
:10247000583A00656E6473746F7073206869743ABB
:102480002000446F6E6520736176696E672066690F
:102490006C652E0A004D3239004D3234004D323316
:1024A00020257300556E6B6E6F776E20636F6D6DB8
:1024B000616E643A202200496E7365727420666909
:1024C0006C616D656E7420616E64207072657373EB
:1024D00020627574746F6E20286F72204D31303811
:1024E000290A00486F74656E6420746F6F20636FF3
:1024F0006C640A0050726F62696E67206661696C75
:1025000065640A0050726F62696E67206661696C6B
:10251000656400205A3A200020593A200042656440
:1025200020583A200053442063617264206F6B0A84
:10253000006F70656E526F6F74206661696C6564C0
:102540000A00766F6C756D652E696E697420666120
:10255000696C65640A00534420696E697420666181
:10256000696C0A00486F6D652025732573257320FB
:102570006669727374002066697273740A005A0087
:1025800059005800486F6D65200057726974696E74
:102590006720746F2066696C653A20006F70656E05
:1025A000206661696C65642C2046696C653A200080
:1025B0006F70656E206661696C65642C2046696C7D
:1025C000653A200046696C652073656C65637465C7
:1025D000640A002053697A653A200046696C6520D8
:1025E0006F70656E65643A20002066696C653A20FC
:1025F00000646F696E67006672657368004E6F777E
:102600002000454E4420535542524F5554494E45A3
:102610000A002220706F73002220706172656E7450
:102620003A2200535542524F5554494E452043419A
:102630004C4C207461726765743A22004B494C4CD3
:1026400045442E2000747279696E6720746F206390
:10265000616C6C207375622D67636F6465206669B9
:102660006C6573207769746820746F6F206D616E7C
:1026700079206C6576656C732E204D4158206C6511
:1026800076656C2069733A004572726F723A006F1A
:1026900070656E206661696C65642C2046696C65A6
:1026A0003A200043616E6E6F74206F70656E207308
:1026B000756264697220006563686F3A00000022E9
:1026C00000250028002B0000002100240027002AFC
:1026D00000020202020202020204040404040404CE
:1026E00004030303030303030301010101010101C7
:1026F000010102040810204080010204081020405B
:10270000800102040810204080804020100804024C
:102710000100060900FE0701920321207FFF07FF49
:1027200007FF000000060000010707060200808086
:102730008080800080030202060105A0A005070733
:102740000600005050F850F85050050707060000EA
:102750002078A07028F020050707060000C0C810E8
:10276000204098180507070600006090A040A89038
:1027700068020303060104C0408003070706010046
:102780002040808080402003070706010080402011
:102790002020408005050506000120A870A820051E
:1027A00005050600012020F820200203030602FF91
:1027B000C04080050101060003F802020206020083
:1027C000C0C0050505060001081020408005070768
:1027D0000600007088888888887003070706010053
:1027E00040C040404040E0050707060000708808F0
:1027F000708080F8050707060000F8102010080810
:10280000F005070706000010305090F8101005077B
:1028100007060000F880F008088870050707060022
:1028200000708080F0888870050707060000F808AF
:102830001020202020050707060000708888708877
:1028400088700507070600007088887808087002FD
:102850000505060200C0C000C0C00206060602FF51
:10286000C0C000C040800407070600001020408060
:10287000402010050303060002F800F804070706CD
:1028800001008040201020408005070706000070EE
:1028900088081020002005070706000070880868D7
:1028A000A8A870050707060000708888F88888883F
:1028B000050707060000F08888F08888F0050707FC
:1028C0000600007088808080887005070706000079
:1028D000F08888888888F0050707060000F880805F
:1028E000F08080F8050707060000F88080F08080FF
:1028F00080050707060000708880B8888870050783
:1029000007060000888888F888888801070706027B
:1029100000808080808080800507070600003810D6
:1029200010101090600507070600008890A0C0A056
:102930009088050707060000808080808080F80569
:10294000070706000088D8A8888888880507070632
:1029500000008888C8A898888805070706000070C6
:10296000888888888870050707060000F08888F046
:1029700080808005070706000070888888A8906816
:10298000050707060000F08888F0A0908805070773
:10299000060000788080700808F005070706000030
:1029A000F8202020202020050707060000888888BE
:1029B00088888870050707060000888888888850FE
:1029C000200507070600008888888888A850050722
:1029D00007060000888850205088880507070600F1
:1029E0000088888850202020050707060000F80886
:1029F00010204080F8030707060100E080808080F7
:102A000080E0050505060001804020100803070747
:102A1000060100E02020202020E00503030600043A
:102A2000205088050101060000F802020206020596
:102A300080400505050600007008788878050707BE
:102A40000600008080B0C88888F0050505060000F3
:102A5000708080887005070706000008086898885D
:102A600088780505050600007088F880700507075E
:102A70000600003048E0404040400506060600FFE2
:102A80007088887808700507070600008080B0C845
:102A90008888880107070602008000808080808087
:102AA0000308080601FF200020202020A040040782
:102AB00007060000808090A0C0A0900307070601D1
:102AC00000C04040404040E0050505060000D0A899
:102AD000A8A8A8050505060000B0C88888880505CF
:102AE0000506000070888888700506060600FFF05D
:102AF0008888F080800506060600FF7888887808B8
:102B000008050505060000B0C8808080050505069B
:102B1000000070807008F00407070600004040E0E5
:102B20004040403005050506000088888898680503
:102B30000505060000888888502005050506000068
:102B40008888A8A8500505050600008850205088F0
:102B50000506060600FF88888878087005050506C2
:102B60000000F8102040F80307070601002040404D
:102B7000804040200107070602008080808080801E
:102B80008003070706010080404020404080050286
:102B9000020600026890000000060000000609001E
:102BA000FE000000000001090008FE000005080802
:102BB00006000040F0C888889878100508080600CC
:102BC00000C0F88888888888F80505050600012077
:102BD00030F830200508080600002070F82020207A
:102BE00020E00509090600FF2070A8A8B8888870B1
:102BF000200509090600FFE080C0B0A82830282879
:102C00000509090600FFF8A88888888888A8F805BB
:102C10000A0A0600FE205050505088A8A888700369
:102C2000030306000340A04028D96CD711241FBE1F
:102C3000CFEFD0E4DEBFCDBF12E0A0E0B1E0EEE325
:102C4000FAED01E00BBF02C007900D92A835B10765
:102C5000D9F72CE2A8E5B2E001C01D92A835B20771
:102C6000E1F716E1C5E1D6E104C02197FE010E941B
:102C700083ECC431D107C9F70E940FDA0C9412ED2E
:102C80000C94000090916F00292F227091FF05C0D5
:102C900090916F009D7F90936F0034E0839FC001FF
:102CA0001124FC01E05BF84D408151816281738108
:102CB000815F974EFC01408351836283738381E07F
:102CC00080930E18222329F080916F0082608093F8
:102CD0006F000895BC0120910C1830910D1840919F
:102CE0000C1850910D182417350731F481E0261780
:102CF000370709F080E008959A01F1CF4F925F9273
:102D00006F927F928F929F92AF92BF92EF92FF92BB
:102D10000F931F93CF93DF93C4E7D4E080E6E82EB0
:102D200087E2F82E04E614E0412C512C3201439442
:102D30006991799189919991F70181909190A190F0
:102D4000B1907F010E949BE3A50194010E94FCE3E6
:102D50000E943EEBF80161937193819391938F01EF
:102D6000461657066806790610F42B013C01F4E07C
:102D7000C438DF07E9F66FEF7FEFCB01A3019201C3
:102D80000E94DEE920936004309361044093620462
:102D900050936304DF91CF911F910F91FF90EF90BB
:102DA000BF90AF909F908F907F906F905F904F906B
:102DB0000895CF93DF9390916F00292F227091FF98
:102DC00005C090916F009D7F90936F0094E0899F64
:102DD000A0011124FA01E05BF84D608171818281CC
:102DE0009381222329F020916F00226020936F00AD
:102DF000EA01C858D74E0E949DE3288139814A8153
:102E00005B810E94FCE3DF91CF91089580916F0078
:102E1000982F927081FF05C080916F008D7F809305
:102E20006F001092AC181092AD181092AE1810925C
:102E3000AF18992329F080916F00826080936F0012
:102E400008950F931F938091DC279091DD27891BB4
:102E50008F7309F449C09091D927992361F0833089
:102E600040F48FEF890F29F08093D92790E080E01C
:102E700038C01092D9278091DD272DE4829FC001B0
:102E800011248B579B4FFC01208120FDEFCF4091F7
:102E9000AC185091AD186091AE187091AF18E75B07
:102EA000FF4F0081118122813381401B510B620B46
:102EB000730B4093AC185093AD186093AE18709399
:102EC000AF182091DD272F5F2F732093DA273091E1
:102ED000DD272091DB27321304C02091DA272093CD
:102EE000DB271F910F9108950E940617BFCFCF9344
:102EF000DF9380912504329B64C081608093250418
:102F00008091250433995FC08D7F80932504809143
:102F1000250434995AC08B7F809325048091250421
:102F200090912404981709F452C092E090932304DE
:102F3000809324048091B818811105C08091B9183C
:102F4000882309F451C0C091FF17C0FF10C08091C1
:102F5000C51780FF0CC08091220480FF08C08091BB
:102F6000E71881608093E71880E00E944216C1FF55
:102F700010C08091C51781FF0CC08091220481FF91
:102F800008C08091E71882608093E71881E00E9472
:102F90004216C2FF29C08091C51782FF25C08091CB
:102FA000B918882309F18091220482FF1DC0809105
:102FB000E71884608093E71882E0DF91CF910C944A
:102FC00042168E7F9BCF8260A0CF8460A5CF809178
:102FD0002304882309F4AECF815080932304811108
:102FE000A9CF90932204A6CFDF91CF9108955E9A46
:102FF000809123258E7F809323255E9A80912325BF
:103000008D7F80932325159A809123258B7F809334
:1030100023255E9A0895CF93DF9380E00E94D9160E
:10302000CFEBD3E0688379838A839B8381E00E941E
:10303000D9166C837D838E839F8382E00E94D9168C
:10304000688779878A879B87DF91CF910895CF9290
:10305000DF92EF92FF926091FA037091FB03072ECB
:10306000000C880B990B0E949DE36B017C012DEBFA
:1030700037E346E855EB0E94C5EB87FD0BC02DEB0F
:1030800037E346E855E3C701B6010E9496E31816F8
:103090000CF043C0A701960160E070E080E89FE378
:1030A0000E94C5EA6093B7037093B8038093B90395
:1030B0009093BA036091FC037091FD03072E000CFE
:1030C000880B990B0E949DE36B017C012DEB37E38C
:1030D00046E855EB0E94C5EB87FD0AC02DEB37E3B0
:1030E00046E855E3C701B6010E9496E31816CCF4F2
:1030F000A701960160E070E080E89FE30E94C5EAC6
:103100006093BB037093BC038093BD039093BE0395
:10311000FF90EF90DF90CF90089560E070E0CB01DA
:10312000C1CF60E070E0CB01EBCF8091E5029091E0
:10313000E602A091E702B091E80280934E019093DD
:103140004F01A0935001B09351018091E3029091FF
:10315000E40290932A0180932901089580914E0101
:1031600090914F01A0915001B09151018093E502DF
:103170009093E602A093E702B093E80280912901C0
:1031800090912A019093E4028093E30284E690E018
:1031900090932A018093290108950F931F93CF9351
:1031A000DF9394E0899FE00111248E010C5D1A4D9C
:1031B000FE01E654F74EDE01A152BC4F2D913D9128
:1031C0004D915C9160817181828193810E9442EA7C
:1031D000F8016083718382839383FE01E35CFB4F7C
:1031E00085919591A591B491FE01EC56F74E80839F
:1031F0009183A283B383FE01E75BFB4F8591959199
:10320000A591B491C55DDE4F88839983AA83BB8362
:10321000DF91CF911F910F9108959091E618E92FBA
:10322000F0E0EA53F74E80839F5F903240F4909332
:10323000E6188091E9248F5F8093E9240895109225
:10324000E618F7CF2FEB280F2A3108F042C0E22F03
:10325000F0E08091080390910903A0910A03B091D6
:103260000B0304C0B695A795979587952A95D2F735
:1032700080FD02C081700895E251FD4FE081EE2390
:1032800029F18091F1249091F224E80FF92FF11D9A
:10329000808190ED980F9A3030F08E3251F4818118
:1032A00080538A3098F4F0937B02E0937A0281E0B5
:1032B00008958D3211F08B3249F4818190ED980F91
:1032C0009A3088F38E3211F48281EACFF0E0E0E0A8
:1032D000EACF80E008950E942219882341F081E01E
:1032E00020917A0230917B02232B09F480E008952B
:1032F000089590E080E0089580E1E4E3F5E2ADEF29
:10330000B4E201900D928A95E1F7089580E1EDEF26
:10331000F4E2A4E3B5E201900D928A95E1F70895F5
:1033200080919103909192032FEF3FEF981751F006
:10333000E92FF0E0EF5EFC4F208130E09F5F9F7748
:1033400090939203C90108953F924F925F926F92BA
:103350007F928F929F92AF92BF92CF92DF92EF9225
:10336000FF920F931F93CF93DF93EC01162FDCACEA
:103370005BAC5C0124E0A20EB11CE98DFA8DC501A5
:103380000995982EE884F984C7010E9463A7082F45
:10339000888599850E9466A7782E88248A940130B2
:1033A00011F48FE0882E888599850E9459A7082FEF
:1033B000888599850E9455A7C82E888599850E9481
:1033C0005DA7113670F0009761F0E80EF91E01E676
:1033D000C116B8F41C8A1F8A188E1D8A1E8A80E0C6
:1033E0005BC0888599850E9460A7113430F00097F2
:1033F00021F0E80EF91E01E4EBCF81E1E80EF11CAB
:10340000E7CFC01638F3872D90E0F70124912F3FC6
:1034100039F4FFEFEF1AFF0AC016E1F20F5FF5CFA4
:10342000101368C0888599850E9463A797012F5F54
:103430003F4FF701882319F0823009F044C084918E
:103440008F8BF9012491288FF7013396E491EC8B4F
:10345000F7013496E491ED8BF7013596E491EE8B0C
:10346000E114F10409F4BBCF888599850E9466A711
:10347000782ECF88388C8D89580E1D2D13198E8982
:10348000181B190D032D2C2D412F652DC5010E94F0
:1034900070A7811138C08C899BAD890F8BAF81E0FB
:1034A00090E0DF91CF911F910F91FF90EF90DF900F
:1034B000CF90BF90AF909F908F907F906F905F90D4
:1034C0004F903F9008958491982F9F7092509E8BBB
:1034D00082958F708D8BF9012491822F8F70888F48
:1034E00022952F702F8BF7013296E491E295EF70C1
:1034F000EC8BB6CF3296E491E821E80FF92FF11D5D
:10350000EE0EFF1E89CFE70CF11C07E00C0D0695AF
:1035100006950695310E4E01F0E28F0E911C602E3D
:10352000712C131509F4B7CF452C670112C0F601B1
:1035300084916E817F8148A219A31BA28AA3940162
:103540004BE3C5010E9493A5FFEFCF1ADF0A28E0E5
:10355000420E8C2D8E19801750F3E60CF71C1F5F5E
:10356000E0CF4F925F926F927F928F929F92AF9235
:10357000BF92CF92DF92EF92FF92CF93DF93CDB7BE
:10358000DEB76A970FB6F894DEBF0FBECDBF9A8F35
:10359000898F5B014A01DC01D7966D917D918D91F8
:1035A0009C91DA970E949BE36B017C01F5012081DD
:1035B0003181428153810E94FCE30E94AEEA0E9465
:1035C0003EEB3B015C01D4012D913D914D915C910D
:1035D000C701B6010E94FCE30E94AEEA0E943EEBE6
:1035E0006D827E82AF82B8862D813E814F81588563
:1035F000283731054105510540F428E730E040E027
:1036000050E02D833E834F83588769837A838B8371
:103610009C8389819A81AB81BC8188379105A10502
:10362000B10540F428E730E040E050E029833A83D8
:103630004B835C83E98DFA8DED5BFF4F8081918137
:10364000A281B38189879A87AB87BC87BC01CD01F2
:103650000E949DE32B013C016D817E818F819885C5
:103660000E949BE3698B7A8B8B8B9C8B20E030E0F4
:10367000A901C301B2010E9496E3882309F43BC16A
:10368000A7019601C701B6010E94FCE34B015C0152
:1036900029893A894B895C89CA01B9010E94FCE3F6
:1036A0009B01AC01C501B4010E9441EA4B015C01E0
:1036B000A3019201C301B2010E9442EA9B01AC0145
:1036C000C501B4010E94C5EA0E94AEEA0E943EEB29
:1036D0006D877E878F87988B69857A858B859C859A
:1036E00090958095709561957F4F8F4F9F4F0E9469
:1036F0009DE34B015C0169817A818B819C810E94F1
:103700009BE369877A878B879C8720E030E0A9015B
:10371000C501B4010E9496E3882309F4F0C029850D
:103720003A854B855C85CA01B9010E94FCE36D8B2B
:103730007E8B8F8B988FA7019601C701B6010E94DF
:10374000FCE39B01AC016D897E898F89988D0E9475
:1037500041EA6B017C01A5019401C501B4010E94FD
:1037600042EA9B01AC01C701B6010E94C5EA0E9472
:103770006DEBA98DBA8D95968D909D90AD90BC9076
:103780009897750164012D853E854F855889C21A29
:10379000D30AE40AF50A0E943EEBC61AD70AE80AE1
:1037A000F90AF7FE6EC020E030E0A901C301B201C2
:1037B0000E9496E3882309F4A6C0C501B4010E94C3
:1037C0009BE36B017C01A3019201C301B2010E9442
:1037D00042EA9B01AC01C701B6010E94FCE36B0108
:1037E0007C0129893A894B895C89CA01B9010E9407
:1037F000FCE39B01AC01C701B6010E9441EA6B01E9
:103800007C0129853A854B855C85CA01B9010E94F6
:10381000FCE39B01AC01C701B6010E9442EA6B01C7
:103820007C0120E030E040E850E4C301B2010E9496
:10383000FCE39B01AC01C701B6010E94C5EA0E94EE
:10384000AEEA6B017C0120E030E0A9010E94C5EBEB
:1038500018161CF0C12CD12C7601C701B6010E94AC
:103860003EEB6D877E878F87988B86169706A80616
:10387000B90620F48D869E86AF86B88AC12CD12CDD
:1038800076018D859E85AF85B889E98DFA8D82A7F1
:1038900093A7A4A7B5A7C80ED91EEA1EFB1EDF0179
:1038A000C6A6D7A6E0AAF1AA2D813E814F815885F0
:1038B00023AF34AF45AF56AFDF9629813A814B81B4
:1038C0005C812D933D934D935C9313976A960FB64D
:1038D000F894DEBF0FBECDBFDF91CF91FF90EF9088
:1038E000DF90CF90BF90AF909F908F907F906F9020
:1038F0005F904F90089560E070E0CB01E5CE60E00E
:1039000070E0CB0134CF60E070E0CB0198CF4F92F4
:103910005F926F927F928F929F92AF92BF92CF925F
:10392000DF92EF92FF920F931F93CF93DF93EC01FF
:103930006091EC037091ED03072E000C880B990B3E
:103940000E949DE39B01AC01688179818A819B8102
:103950000E9441EA6B017C016091EE037091EF03DC
:10396000072E000C880B990B0E949DE39B01AC0174
:103970006C817D818E819F810E9441EA4B015C01B7
:10398000A7019601609106017091070180910801DD
:10399000909109010E9496E3882309F451C0C092D6
:1039A0000601D0920701E0920801F09209012091EE
:1039B000B7033091B8034091B9035091BA03C701DE
:1039C000B6010E94FCE32B013C010E946DEB6B01F0
:1039D0007C0120E030E0A9010E9496E387FD71C0E0
:1039E00020E030E040E85FE3C701B6010E94C5EB8C
:1039F000181634F4C12CD12CC0E8EC2ECFE3FC2EE9
:103A0000A7019601C301B2010E9441EA6093B3038A
:103A10007093B4038093B5039093B603C701B601C6
:103A20000E9437EB6093B203062E000C770B6F5F9A
:103A30007F4F6230710514F062E070E06093B10373
:103A400010910101D091B203A5019401609102018E
:103A50007091030180910401909105010E9496E309
:103A6000811133C01D1382C02091930330919403C0
:103A700040919503509196036091B3037091B40304
:103A80008091B5039091B6030E94FCE320919703C7
:103A9000309198034091990350919A030E9442EA11
:103AA000DF91CF911F910F91FF90EF90DF90CF901A
:103AB000BF90AF909F908F907F906F905F904F904E
:103AC0000895C12CD12C76019BCF80920201909257
:103AD0000301A0920401B09205012091BB03309133
:103AE000BC034091BD035091BE03C501B4010E94C7
:103AF000FCE34B015C010E946DEB6B017C0120E05B
:103B000030E0A9010E9496E387FDF9C020E030E093
:103B100040E85FE3C701B6010E94C5EB181634F414
:103B2000C12CD12CB0E8EB2EBFE3FB2EA7019601F0
:103B3000C501B4010E9441EA6093AD037093AE03E6
:103B40008093AF039093B003C701B6010E9437EB97
:103B50006093AC03062E000C770B6F5F7F4F6230D3
:103B6000710514F062E070E06093AB03C091AC03A8
:103B70001D1305C0809100018C1709F475C0D09306
:103B80000101C09300018D2FDD0F990B0C2E000C4D
:103B9000DD0BAC01440F551F840F951FFC01EC0F8A
:103BA000FD1FEE0FFF1FEE0FFF1FE250FC4F2081A5
:103BB0003181428153812093A7033093A80340931E
:103BC000A9035093AA03E091AB030E2FEE0F110B44
:103BD000DC01A00FB11FAA0FBB1FAA0FBB1FA25071
:103BE000BC4F6D917D918D919C910E9441EA6093B3
:103BF000A3037093A4038093A5039093A6038091DD
:103C0000B103282F880F330BC901880F991F820F2A
:103C1000931FC80FD91FCC0FDD1FCC0FDD1FC25063
:103C2000DC4F288139814A815B8120939F03309347
:103C3000A0034093A1035093A203FC01E00FF11FE6
:103C4000EE0FFF1FEE0FFF1FE250FC4F60817181EE
:103C5000828193810E9441EA60939B0370939C034D
:103C600080939D0390939E038090AD039090AE034C
:103C7000A090AF03B090B0032091A3033091A403B0
:103C80004091A5035091A603C501B4010E94FCE335
:103C90002091A7033091A8034091A9035091AA0352
:103CA0000E9442EA6B017C01C0929703D092980374
:103CB000E0929903F0929A0320919B0330919C0328
:103CC00040919D0350919E03C501B4010E94FCE305
:103CD00020919F033091A0034091A1035091A20332
:103CE0000E9442EAA70196010E9441EA6093930371
:103CF000709394038093950390939603B5CEC12C53
:103D0000D12C760113CFCF93DF9320912604222369
:103D100079F0EC010E94871C9B01AC0168857985D4
:103D20008A859B850E9441EA688779878A879B8775
:103D3000DF91CF9108958F929F92AF92BF92CF92D1
:103D4000DF92EF92FF920F93CF93DF931F92CDB745
:103D5000DEB76C017B0149018091F0035B01A40E89
:103D6000B51E8823A1F0F60180819181480F591F6B
:103D7000518340830F90DF91CF910F91FF90EF908F
:103D8000DF90CF90BF90AF909F908F900895F601F5
:103D9000808191810E94B8E989839091F1039923F0
:103DA00011F0002311F0F7018083BE016F5F7F4F98
:103DB000C4010E94C9A1F60180819181019691837D
:103DC0008083FFEFEF1AFF0AEA14FB0401F7D2CF5A
:103DD00080917A0290917B02009731F04AE050E0A6
:103DE00070E060E00C94A9E060E070E0CB01089521
:103DF0000E94E81E97FD0CC00E94E81E6F3F7105EF
:103E00008105910509F034F40E94E81E862F08957B
:103E100080E008958FEF089580917A0290917B025F
:103E2000892B41F00E94F81E91E0811101C090E0C1
:103E3000892F089591E0FCCF80917A0290917B02C6
:103E4000009731F04AE050E070E060E00C94D7E178
:103E500060E070E0CB0108950F931F93CF938091A2
:103E60007A0290917B020097E9F0FC018F01C191E9
:103E70002C2F2F7D81F0C53411F0C536B9F7F8012C
:103E8000108270E060E00E944BDFF801C083CF91A8
:103E90001F910F91089570E060E0CF911F910F91F5
:103EA0000C944BDF60E070E0CB01F1CF1198000083
:103EB000000087FD52C0419800000000119A0000E8
:103EC000000011980000000086FD53C041980000DA
:103ED0000000119A0000000011980000000085FD0C
:103EE00046C0419800000000119A0000000011989F
:103EF0000000000084FD39C0419800000000119AC4
:103F00000000000011980000000083FD2CC04198C3
:103F100000000000119A000000001198000000004D
:103F200082FD1FC0419800000000119A00000000AF
:103F300011980000000081FD12C0419800000000AF
:103F4000119A000000001198000000004198000044
:103F50000000119A000000000895419AADCF419AE7
:103F6000EDCF419AE0CF419AD3CF419AC6CF419A43
:103F7000B9CF419AACCF8F929F92AF92BF92CF921E
:103F8000DF92EF92FF920F931F93CF93DF93B0E4F2
:103F9000A0E06A2F70E0AB014B0F511D559547957E
:103FA0004A1711F0B41319C0EFEBF2E06591749168
:103FB000072E000C880B990B0E949DE3DF91CF9197
:103FC0001F910F91FF90EF90DF90CF90BF90AF9037
:103FD0009F908F900895B42FDECF9A012150310920
:103FE000220F331F220F331FF901EF53FE4FE590CD
:103FF000F490F901EB53FE4FC591D4918E159F05B6
:1040000054F3A42FC817D9070CF4C3CFF901ED530B
:10401000FE4F05911491F901E953FE4FC590D490DC
:10402000BC016E197F09072E000C880B990B0E94AA
:104030009DE34B015C01B601601B710B072E000C68
:10404000880B990B0E949DE39B01AC01C501B40153
:104050000E94FCE34B015C01BE016E197F09072E33
:10406000000C880B990B0E949DE39B01AC01C501DC
:10407000B4010E94C5EA6B017C01B801110F880BE5
:10408000990B0E949DE39B01AC01C701B6010E9400
:1040900042EA94CF0F930FB70F9300916E000B7FFE
:1040A00000936E0078940F930BB70F930CB70F9299
:1040B0001F922F933F934F935F936F937F938F93B1
:1040C0009F93AF93BF93EF93FF9311240E94293BDB
:1040D000FF91EF91BF91AF919F918F917F916F91E0
:1040E0005F914F913F912F911F900F900CBF0F91B7
:1040F0000BBF0F910460F89400936E000F910FBFF7
:104100000F911895CF92DF92EF92FF92C0906B18AB
:10411000D0906C18E0906D18F0906E186091EA24C1
:104120007091EB2466507109072E000C880B990BD7
:104130000E949DE3A70196010E94C5EB18160CF59D
:1041400020E030E040E050E4C701B6010E9442EABE
:104150000E943EEB70934818609347180E948AA211
:10416000605E70448D4F9F4F609343187093441866
:104170008093451890934618FF90EF90DF90CF9072
:1041800008951092431810924418109245181092F6
:104190004618F2CF8F929F92AF92BF92CF92DF924A
:1041A000EF92FF920F931F93CF93DF93B0E2A0E0C3
:1041B0006A2F70E0AB014B0F511D55954795A41721
:1041C00011F0B41319C0E1E4F9E165917491072E7F
:1041D000000C880B990B0E949DE3DF91CF911F91FA
:1041E0000F91FF90EF90DF90CF90BF90AF909F9096
:1041F0008F900895B42FDECF9A0121503109220FFC
:10420000331F220F331FF901ED53F74EE590F49061
:10421000F901E953F74EC591D4918E159F0554F3DA
:10422000A42FC817D9070CF4C3CFF901EB53F74EED
:1042300005911491F901E753F74EC590D490BC0154
:104240006E197F09072E000C880B990B0E949DE3C5
:104250004B015C01B601601B710B072E000C880B33
:10426000990B0E949DE39B01AC01C501B4010E9422
:10427000FCE34B015C01BE016E197F09072E000CA7
:10428000880B990B0E949DE39B01AC01C501B40111
:104290000E94C5EA6B017C01B801110F880B990BD4
:1042A0000E949DE39B01AC01C701B6010E9442EA56
:1042B00094CF80915318909154180E94BB1F609323
:1042C0009727709398278093992790939A278091A6
:1042D0005118909152180E94CA2060936B187093E5
:1042E0006C1880936D1890936E18A89510925518BD
:1042F00008950F931F9380917118813019F50E94D2
:104300008AA200911F181091201820912118309135
:104310002218601B710B820B930B28EE33E040E0F8
:1043200050E00E94DEE960911B1870911C1880918A
:104330001D1890911E18620F731F841F951F1F91E7
:104340000F91089560912318709124188091251879
:1043500090912618D6CF1092711810921F181092B3
:1043600020181092211810922218109223181092DF
:104370002418109225181092261810921B181092CB
:104380001C1810921D1810921E1808958091711813
:104390008130F1F08230C9F40E94792160931B18BA
:1043A00070931C1880931D1890931E1881E08093C1
:1043B00071180E948AA260931F187093201880932E
:1043C00021189093221881E008950E94AB21EECF2E
:1043D00080E0089580917118813079F482E08093B3
:1043E00071180E948AA260932318709324188093F6
:1043F00025189093261881E0089580E00895809113
:1044000071188150823070F4109271180E948AA243
:10441000609323187093241880932518909326187E
:1044200081E0089580E0089590E080E00E94A4A8D3
:104430001092EB241092EA240E9482200E94FF2115
:1044400090E080E00E94A4A8109268185D981092F5
:10445000EB241092EA24109269185C9808950F9347
:104460000FB70F9300916E000F930B7F00936E00B8
:1044700000916F000D7F00936F000F930BB70F93A8
:104480000CB70F921F922F933F934F935F936F93AD
:104490007F938F939F93AF93BF93EF93FF931124D9
:1044A0000E949F22FF91EF91BF91AF919F918F91B9
:1044B0007F916F915F914F913F912F911F900F903E
:1044C0000CBF0F910BBF0F910260F89400936F0027
:1044D0000F9100936E000F910FBF0F91189580916F
:1044E000C51780FF20C0459A8FEF80930E01809101
:1044F000C51781FF1BC0479A8FEF80930F018091F2
:10450000C51782FF16C02A988FEF80931001809103
:10451000C51783FF11C0289A8FEF80931101000007
:10452000000000000895459881E0DFCF479881E0C2
:10453000E4CF2A9A81E0E9CF289881E0EECF2F924C
:104540003F924F925F926F927F928F929F92BF9213
:10455000CF92DF92EF92FF920F931F93CF93DF934F
:10456000F8948FEF9FEF90938900809388007AE012
:10457000B72E312C212CE9E58E2EE8E19E2E789481
:104580008091081890910918A0910A18B0910B1801
:10459000892B8A2B8B2B09F0CCC180910E18882394
:1045A000D1F080910C1890910D1810920E18892B53
:1045B00091F01092FF1710920D1810920C18909114
:1045C000DC278091DD27981731F08091DD278F5F00
:1045D0008F738093DD2780910C1890910D18892B93
:1045E00009F4A7C14091041850910518609106186C
:1045F000709107188091001890910118A0910218ED
:10460000B0910318C090F217D12CF12CE12C841B2F
:10461000950BA60BB70BC816D906EA06FB0610F4D5
:10462000D701C601382F840F951FA61FB71F80938F
:10463000041890930518A0930618B093071880915A
:104640008400909185004E964091DA175091DB17C7
:104650006091DC177091DD17C090CA17D090CB170E
:10466000E090CC17F090CD174C0D5D1D6E1D7F1D99
:104670004093DA175093DB176093DC177093DD17C4
:1046800077FD1CC05F9AC0905027D0905127E090D2
:104690005227F090532720910E01422F220F550BE5
:1046A000660B770B4C0D5D1D6E1D7F1D40935027D3
:1046B0005093512760935227709353274091DE17F0
:1046C0005091DF176091E0177091E117C090CE17FD
:1046D000D090CF17E090D017F090D1174C0D5D1D02
:1046E0006E1D7F1D4093DE175093DF176093E01718
:1046F0007093E11777FD1CC0469AC0905427D09064
:104700005527E0905627F090572720910F01422F10
:10471000220F550B660B770B4C0D5D1D6E1D7F1D1B
:1047200040935427509355276093562770935727EB
:104730004091E2175091E3176091E4177091E517EB
:10474000C090D217D090D317E090D417F090D5171F
:104750004C0D5D1D6E1D7F1D4093E2175093E317B6
:104760006093E4177093E51777FD1CC02B9AC090F7
:104770005827D0905927E0905A27F0905B27209136
:104780001001422F220F550B660B770B4C0D5D1D50
:104790006E1D7F1D409358275093592760935A27C9
:1047A00070935B274091E6175091E7176091E817E7
:1047B0007091E917C090D617D090D717E090D8170E
:1047C000F090D9174C0D5D1D6E1D7F1D4093E617AF
:1047D0005093E7176093E8177093E91777FD1CC0B3
:1047E000299AC0905C27D0905D27E0905E27F090DA
:1047F0005F2720911101422F220F550B660B770B7B
:104800004C0D5D1D6E1D7F1D40935C2750935D27F1
:1048100060935E2770935F274091840050918500DC
:1048200048175907C8F34091DA175091DB17609188
:10483000DC177091DD1777FD15C0C090C617D090BA
:10484000C717E090C817F090C9174C195D096E0999
:104850007F094093DA175093DB176093DC1770934E
:10486000DD175F984091DE175091DF176091E017D8
:104870007091E11777FD15C0C090C617D090C7178B
:10488000E090C817F090C9174C195D096E097F09AF
:104890004093DE175093DF176093E0177093E11792
:1048A00046984091E2175091E3176091E417709198
:1048B000E51777FD15C0C090C617D090C717E090D8
:1048C000C817F090C9174C195D096E097F0940930C
:1048D000E2175093E3176093E4177093E5172B9852
:1048E0004091E6175091E7176091E8177091E9172A
:1048F00077FD15C0C090C617D090C717E090C817B5
:10490000F090C9174C195D096E097F094093E617AD
:104910005093E7176093E8177093E917299831507F
:1049200041F0409184005091850048175907C8F321
:104930008ACE8091081890910918A0910A18B09118
:104940000B18892B8A2B8B2B09F025C4E0910C18AE
:10495000F0910D18309709F486C480910418909155
:104960000518A0910618B0910718409100185091B1
:104970000118609102187091031884179507A60713
:10498000B70708F46EC01092FF1710920D1810921E
:104990000C189091DC278091DD27981709F463C4E7
:1049A0008091DD278F5F8F738093DD2760EDC62EAA
:1049B00067E0D62EE12CF12C80910C1890910D1807
:1049C000892B09F0E0C30E94211790930D18809362
:1049D0000C18892B09F4D7C3C0910C18D0910D186D
:1049E000888183FF92C28D899E89AF89B88D80931B
:1049F000502790935127A0935227B0935327898D26
:104A00009A8DAB8DBC8D8093542790935527A0939E
:104A10005627B09357278D8D9E8DAF8DB8A180936B
:104A2000582790935927A0935A27B0935B2789A1C1
:104A30009AA1ABA1BCA180935C2790935D27A09322
:104A40005E27B0935F279091DC278091DD27981730
:104A500009F4B9CF8091DD278F5F8F738093DD27B5
:104A6000B2CF4091FB175091FC176091FD177091E8
:104A7000FE17481759076A077B0708F4D9C08091C9
:104A8000F7179091F817A091F917B091FA1742A96A
:104A900053A964A975A9CC27859FD12D969F900114
:104AA000A69F300DA59F200D311D869FD00D211D85
:104AB0003C1F959FD00D211D3C1FA49FD00D211D93
:104AC0003C1F949FD10D2C1F3C1FD6952C1F3C1FC3
:104AD000789F200D311D799F300D112443AD54ADC9
:104AE00065AD76AD420F531F611D711D4093F317E5
:104AF0005093F4176093F5177093F617C7A8D0ACCE
:104B0000E1ACF2ACC416D506E606F70640F4C09256
:104B1000F317D092F417E092F517F092F617409041
:104B2000F3175090F4176090F5177090F6172DE377
:104B300038E141E0F901C590D590E590F490C414B6
:104B4000D504E604F70450F4769467945794479498
:104B5000440F2C5F3F4F8216930661F74093F21784
:104B600020E2421651046104710428F420E2422E2E
:104B7000512C612C712C40E2441A510861087108D3
:104B8000411478E057066104710408F42EC0F4E083
:104B90005F9E90011124235C3B4EF90132964591B2
:104BA0005491F42DEE27F59FB001F49F610D7E1F07
:104BB00006946E1F7E1F1124AB0170E060E0F901C6
:104BC000C590D490F12CE12CC41AD50AE60AF70A54
:104BD0008C0D9D1DAE1DBF1D8093F7179093F81788
:104BE000A093F917B093FA17E7CEB301A201769517
:104BF0006795579547959A012C7F235C3F4EF901A5
:104C0000C590D490F901329645915491242D277086
:104C1000422E449E9001459E300D112403E03695AE
:104C200027950A95E1F7C21AD30AF12CE12CD0CFCF
:104C30004091EE175091EF176091F0177091F117B6
:104C4000481759076A077B0708F0CFC08091EA1719
:104C50009091EB17A091EC17B091ED1742A953A9D1
:104C600064A975A92227859F312D969F6001A69F73
:104C7000D00CA59FC00CD11C869F300DC11CD21E2C
:104C8000959F300DC11CD21EA49F300DC11CD21E99
:104C9000949F310DC21ED21E3695C21ED21E789F21
:104CA000C00CD11C799FD00C1124F12CE12C409127
:104CB000F3175091F4176091F5177091F617FF965E
:104CC0004080518062807380C416D506E606F706E0
:104CD00058F44C195D096E097F094416550666069D
:104CE000770610F42A013B012DE338E141E0F90198
:104CF000C590D590E590F490C414D504E604F7046B
:104D000050F47694679457944794440F2C5F3F4F28
:104D10008216930661F74093F21740E2441651045D
:104D20006104710428F4C0E24C2E512C612C712CCA
:104D300070E2471A5108610871084114F8E05F06F3
:104D40006104710408F42EC044E0549E90011124C3
:104D5000235C3B4EF901329645915491F42DEE2798
:104D6000F59FB001F49F610D7E1F06946E1F7E1F9C
:104D70001124AB0170E060E0F901C590D490F12CF2
:104D8000E12CC41AD50AE60AF70A8C0D9D1DAE1D4A
:104D9000BF1D8093EA179093EB17A093EC17B09385
:104DA000ED170ACEB301A201769567955795479501
:104DB0009A012C7F235C3F4EF901C590D490F901F4
:104DC000329645915491242D2770422E449E900195
:104DD000459E300D1124F3E036952795FA95E1F7BD
:104DE000C21AD30AF12CE12CD0CF809113019091FB
:104DF0001401A0911501B0911601B7FF5BC0C7A8BF
:104E0000D0ACE1ACF2AC8DE398E121E0FC0145913E
:104E10005591659174914C155D056E057F0548F4BB
:104E2000F694E794D794C794220F049688169906AF
:104E300069F72093F21740E2C416D104E104F104AB
:104E400028F460E2C62ED12CE12CF12C70E2C71AB6
:104E5000D108E108F108C11488E0D806E104F104A2
:104E600008F431C0A4E0DA9EC0011124835C9B4E9B
:104E7000FC01329625913491BC2D6627B39FA00189
:104E8000B29F410D561F0694461F561F112470E015
:104E900060E0FC0185919491B0E0A0E0841B950B4B
:104EA000A60BB70B8093130190931401A0931501E7
:104EB000B0931601C0901301D0901401E090150139
:104EC000F090160179CDD701C601B695A7959795B3
:104ED00087958C7F835C9F4EFC0125913491FC016A
:104EE000329645915491FC2DF770F49FC001F59FC7
:104EF000900D112453E0969587955A95E1F7281B5C
:104F0000390BC901B0E0A0E0CDCF4D885E886F8835
:104F1000788C81E0411451046104710409F480E04B
:104F2000C98CDA8CEB8CFC8CC114D104E104F10443
:104F300009F082604D8D5E8D6F8D78A14115510510
:104F40006105710509F084608093FF171092EA17DC
:104F50001092EB171092EC171092ED171092F717B2
:104F60001092F8171092F9171092FA178DA19EA1BE
:104F7000AFA1B8A58093001890930118A0930218D0
:104F8000B0930318002711279801081B190B2A0B4F
:104F90003B0B0093E6171093E7172093E817309325
:104FA000E9170093E2171093E3172093E417309367
:104FB000E5170093DE171093DF172093E017309367
:104FC000E1170093DA171093DB172093DC17309367
:104FD000DD17440C551C661C771C4092CA17509272
:104FE000CB176092CC177092CD17CC0CDD1CEE1C49
:104FF000FF1CC092CE17D092CF17E092D017F0923C
:10500000D117440F551F661F771F4093D217509337
:10501000D3176093D4177093D51749A15AA16BA1E8
:105020007CA1440F551F661F771F4093D6175093DE
:10503000D7176093D8177093D917880F991FAA1F95
:10504000BB1F8093C6179093C717A093C817B09340
:10505000C917109204181092051810920618109291
:1050600007188AA59BA5ACA5BDA58093FB179093B7
:10507000FC17A093FD17B093FE178EA59FA5A8A9B6
:10508000B9A98093EE179093EF17A093F017B09300
:10509000F11729A53EA98091C517381309C0409181
:1050A0001201822F022E000C990B4817190631F0BD
:1050B0003093C517209312010E946F220E94771728
:1050C0008FEF9FEFDC018093130190931401A09365
:1050D0001501B09316014BAD5CAD6DAD7EAD409347
:1050E000F3175093F4176093F5177093F6178DE349
:1050F00098E121E0FC01C590D590E590F490C416AC
:10510000D506E606F70648F47695679557954795D0
:10511000220F04968816990669F72093F2174032F9
:1051200051056105710520F440E250E060E070E057
:105130004052510961097109411598E0590761050B
:10514000710508F46EC0A4E05A9FC0011124835C6D
:105150009B4EFC01329625913491AA27439FF00182
:10516000429FE10DFA1F0694EA1FFA1F1124AF01B6
:1051700070E060E0FC01C590D490F12CE12CC41AE1
:10518000D50AE60AF70AC0920818D0920918E092E8
:105190000A18F0920B188091081890910918A091A4
:1051A0000A18B0910B18AC01BD010097F1E0AF07F0
:1051B000B10520F04FEF5FEF60E070E0841B950BCE
:1051C000A60BB70B8093081890930918A0930A18A0
:1051D000B0930B18F89480918400909185004096CC
:1051E000BA94BB2009F43DC0240E351E281639069A
:1051F00008F4C5C930928900209288007894DF9124
:10520000CF911F910F91FF90EF90DF90CF90BF90C3
:105210009F908F907F906F905F904F903F902F90D6
:105220000895DB01CA01B695A795979587958C7F60
:10523000835C9F4EFC01C590D490FC013296259171
:1052400034914770429FC001439F900D112433E079
:10525000969587953A95E1F7C81AD90AF12CE12C71
:1052600092CF1C01C7CF80EDC82E87E0D82EE12C4D
:10527000F12CA9CBCF92DF92EF92FF920F931F9365
:10528000CF93DF938C01EB0170E060E00E94C3A03C
:1052900087FD8CC0C03282E0D8070CF043C0D80133
:1052A00012968C91129728E532E0281B310987FD70
:1052B0003395220F331F220F331F032E000C440B94
:1052C000550B11968C9198E8C92ED12CC81AD1088B
:1052D00087FDD394CC0CDD1CCC0CDD1C0D2C000CFC
:1052E000EE08FF0860E070E0CB01D7FD0AC0BE0108
:1052F000C53BD10514F064EB70E0072E000C880B61
:10530000990B2C193D094E095F090E94CEE924EB47
:1053100030E040E050E00E9400EAC20ED31EE41EDE
:10532000F51EE601D801EC91EC3008F511962C91B0
:10533000119788E890E0821B910927FD9395880FCB
:10534000991F880F991FC817D907FCF402974FB708
:10535000F8942E2F30E0F901EE0FFF1FE20FF31F3C
:10536000EE5FF74D880F991F928381834FBF62E3F1
:1053700070E080E090E0DF91CF911F910F91FF905E
:10538000EF90DF90CF900C9480A812962C9188E536
:1053900092E0821B910927FD9395880F991F880F32
:1053A000991FC817D90794F6CE01D0CFDF91CF91BE
:1053B0001F910F91FF90EF90DF90CF9008951F9273
:1053C0000F920FB60F9211240BB60F922F933F93AB
:1053D0004F935F936F937F938F939F93AF93BF93FD
:1053E000EF93FF938091840487FF27C0109295006C
:1053F00010929400809184048F5F80938404809144
:105400008404082E000C990B2091262828171906D1
:1054100029F024F0809184048C30DCF18091940098
:1054200090919500049680349C4908F47DC0809149
:10543000940090919500049679C080918404082E80
:10544000000C990B209126282817190699F294F23E
:10545000E09184048E2FEE0F990BFC01EE0FFF1FDD
:10546000E80FF91FEE5FF74D808186FFC3CFE09113
:1054700084048E2FEE0F990BFC01EE0FFF1FE80F37
:10548000F91FEE5FF74D808160E08F730E94FBA1F2
:10549000B1CF2091940030919500E09184048E2F3B
:1054A000EE0F990BFC01EE0FFF1FE80FF91FEE5FE7
:1054B000F74D81819281820F931F90939900809381
:1054C0009800E09184048E2FEE0F990BFC01EE0FF3
:1054D000FF1FE80FF91FEE5FF74D808186FF11C0B7
:1054E000E09184048E2FEE0F990BFC01EE0FFF1F4D
:1054F000E80FF91FEE5FF74D808161E08F730E9426
:10550000FBA1FF91EF91BF91AF919F918F917F91FF
:105510006F915F914F913F912F910F900BBE0F9024
:105520000FBE0F901F90189580E49CE9909399000E
:10553000809398008FEF80938404E3CFCF93DF9321
:1055400090916F00292F227091FF05C090916F00FC
:105550009D7F90936F0094E0899FA0011124FA0130
:10556000E15FF74E6081718182819381222329F06E
:1055700020916F00226020936F00EA01C858D74E37
:105580000E949DE3288139814A815B810E94FCE36E
:10559000DF91CF9108950F931F93CF93DF93CDB7F2
:1055A000DEB72C970FB6F894DEBF0FBECDBF2091AB
:1055B0002604222349F18A0119861A861B861C8635
:1055C000FC0180819181A281B38189839A83AB831D
:1055D000BC83FB0180819181A281B3818D839E83F5
:1055E000AF83B887CE0101960E94871C9B01AC0156
:1055F000F80160817181828193810E9442EAF80101
:1056000060837183828393832C960FB6F894DEBFF8
:105610000FBECDBFDF91CF911F910F910895FC0177
:1056200020E03EE2DB014D91BD01403249F02830DF
:1056300011F430833196DB0111974C914083319600
:105640002F5F2B3079F71082089561E0FC01808193
:105650000C94FBA18EBD0DB407FEFDCF08958FEF16
:105660008EBD0DB407FEFDCF8EB508958F929F922B
:10567000AF92BF92EF92FF920F931F93CF937C0153
:10568000C62F49015A01FC019281892F806A8695B3
:105690008CBD90FD03C081E0963009F480E08DBDA3
:1056A00060E0F70180810E94FBA18CE291E00E9402
:1056B000E2A28C2F80640E942A2B08E110E0D50121
:1056C000C401002E04C0B695A795979587950A94B6
:1056D000D2F70E942A2B08501109083FFFEF1F073D
:1056E00071F785E9CC2321F087E8C83009F08FEF06
:1056F0000E942A2BCC3011F40E942F2BC0E00E9474
:105700002F2BF701838387FF04C0CF3F11F0CF5FBA
:10571000F6CFCF911F910F91FF90EF90BF90AF9078
:105720009F908F9008950F931F93CF93DF93EC0179
:1057300089018C81833039F089E0440F551F661F41
:10574000771F8A95D1F79A01AB0168E1CE010E94DB
:10575000362B882319F086E089833AC08EEF8EBD00
:10576000F801C8019E5F0DB407FEFDCF20812EBD5C
:105770000DB407FEFDCF21812EBD3296E817F90743
:1057800091F70DB407FEFDCF8FEF0E942A2B8FEF0C
:105790000E942A2B0E942F2B8B838F71853099F4C6
:1057A00088E592E00E94E2A2182F87E11123A1F27E
:1057B00020E030E0A9016DE0CE010E94362B882365
:1057C00061F086E1C9CF83E18983CE010E94252B58
:1057D000CE010E94252B10E007C00E942F2B8111C3
:1057E000F0CFCE010E94252B812FDF91CF911F9109
:1057F0000F910895CF9380914C27C1E08823A1F0A9
:105800004091442750914527609146277091472742
:1058100024E435E280914D2790914E270E94932BEE
:10582000C82F811104C0C0E08C2FCF910895409102
:1058300048275091492760914A2770914B2741157D
:1058400051056105710591F024E435E280914D2701
:1058500090914E270E94932B882329F3109248277A
:105860001092492710924A2710924B2710924C27EA
:10587000DBCFEF92FF920F931F93CF93DF93EC0157
:1058800079018C81833039F089E0440F551F661F00
:10589000771F8A95D1F79A01AB0161E1CE010E9491
:1058A000362B882339F084E08983CE010E94252B92
:1058B00080E03BC00E948AA28B010E942F2B8B8329
:1058C0008F3F81F40E948AA2601B710B6D32714080
:1058D000A0F381E18983CE010E94252B8FEF0E94E6
:1058E0002A2BE6CF8E3F11F08FE0F4CF8FEF8EBDE5
:1058F000F701D701A150BE4F0DB407FEFDCF9EB5F5
:1059000091938EBDAE17BF07B9F70DB407FEFDCF5B
:105910008EB58C930E942F2B0E942F2BCE010E94BC
:10592000252B8FEF0E942A2B81E0DF91CF911F91D1
:105930000F91FF90EF900895CF92DF92EF92FF9238
:10594000CF936B017C01C42F809144279091452710
:10595000A0914627B09147278C159D05AE05BF0540
:1059600001F10E94FA2B811108C0C0E08C2FCF9169
:10597000FF90EF90DF90CF90089524E435E2B701D7
:10598000A60180914D2790914E270E94392C8823A3
:1059900061F3C0924427D0924527E0924627F092C7
:1059A0004727CC2321F081E080934C27DFCFC1E053
:1059B000DDCF4F925F926F927F928F929F92AF92C4
:1059C000BF92CF92DF92EF92FF920F931F93CF93EC
:1059D000DF93EC01423051056105710590F480E0E0
:1059E000DF91CF911F910F91FF90EF90DF90CF90BB
:1059F000BF90AF909F908F907F906F905F904F90EF
:105A0000089589859A85AB85BC850196A11DB11D38
:105A100084179507A607B70710F38F898031C9F55A
:105A2000852E962EA72EBB248B899C89AD89BE8995
:105A3000880E991EAA1EBB1E280139016A017B012E
:105A400041E0C501B4010E949C2C882341F29F894A
:105A5000903181F5DD24EE24FF24F601EE0FFF1FC7
:105A6000EC5BFA4D118300839A89923008F4B8CF29
:105A70004D815E816F817885840E951EA61EB71EAE
:105A80008092482790924927A0924A27B0924B27AC
:105A9000A7CF803209F0A3CF8B899C89AD89BE89BD
:105AA0004A015B01E7E0B694A79497948794EA953E
:105AB000D1F7BECFE894C7F8DD24EE24FF24F60129
:105AC000EE0FFF1FEE0FFF1FEC5BFA4D408251827D
:105AD00062827382C9CFCF92DF92EF92FF920F93CF
