:100000000C9434160C945E160C945E160C945E16CA
:100010000C945E160C945E160C945E160C945E1690
:100020000C945E160C94C7BE0C945E160C945E166F
:100030000C945E160C946E400C945E160C945E1636
:100040000C945E160C94AE2E0C9431C10C945E167A
:100050000C9405B20C942FB20C945E160C945E16A0
:100060000C945E160C945E160C945E160C945E1640
:100070000C945E160C945E160C945E160C945E1630
:100080000C945E160C945E160C945E164E414E490E
:100090004E495459494E46CDCCCC3D0AD7233C1746
:1000A000B7D13877CC2B329595E6241FB14F0A0093
:1000B0000020410000C84200401C4620BCBE4CCA83
:1000C0001B0E5AAEC59D7470012C0190012701B022
:1000D000012201C0011D01F00118011002130130BD
:1000E000020E016002090190020401C002FF00003B
:1000F00003FA004003F5008003F000D003EB00207A
:1001000004E6007004E100E004DC004005D700C014
:1001100005D2004006CD00D006C8008007C30030DD
:1001200008BE00F008B900C009B400B00AAF00B0C2
:100130000BAA00D00CA500000EA000500F9B00C021
:100140001096005012910000148C00C0158700B06A
:10015000178200B0197D00D01B7800001E7300408C
:10016000206E0090226900F024640040275F009018
:10017000295A00E02B5500102E500020304B001063
:10018000324600E033410090353C001037370070B4
:10019000383200A0392D00B03A2800A03B2300607F
:1001A0003C1E00103D1900903D1400103E0F0070E1
:1001B0003E0A00C03E0500003F0000403FFBFF80BC
:1001C0003FF6FFC03FF1FF454550524F4D2064615F
:1001D000746173697A65206572726F722E0A0029E4
:1001E0000A002062797465733B20637263200053B8
:1001F000657474696E67732053746F726564202828
:1002000000290A002062797465733B2063726320C1
:10021000002073746F7265642073657474696E670F
:1002200073207265747269657665642028002028E1
:1002300063616C63756C6174656429210A00202117
:100240003D2000454550524F4D20435243206D699B
:10025000736D61746368202D202873746F726564F8
:100260002920002053697A653A2000496E64657838
:100270003A2000204D61726C696E3D563536290A70
:100280000028454550524F4D3D00454550524F4D79
:100290002076657273696F6E206D69736D6174632A
:1002A00068200048617264636F6465642044656619
:1002B00061756C742053657474696E6773204C6F3C
:1002C000616465640A00F401000020030000F40189
:1002D000000088130000000048430000484300006D
:1002E0007041000048420000A0420000A04200000F
:1002F000C8430000BE4220286D6D29002044002024
:10030000490020204D3330312050005049442073A3
:10031000657474696E67733A0A00205A00205900A8
:10032000202047323920533320580020204D3432CA
:10033000302053004D65736820426564204C65761B
:10034000656C696E673A0A00204500205A00205902
:100350000020580020540020530020204D3230351A
:1003600020510020453C6D61785F655F6A65726B66
:100370003E0020583C6D61785F785F6A65726B3E25
:1003800020593C6D61785F795F6A65726B3E205AD7
:100390003C6D61785F7A5F6A65726B3E004164769E
:1003A000616E6365643A20513C6D696E5F73656789
:1003B0006D656E745F74696D655F75733E20533C47
:1003C0006D696E5F66656564726174653E20543C5C
:1003D0006D696E5F74726176656C5F666565647287
:1003E0006174653E0020540020520020204D3230C0
:1003F00034205000416363656C65726174696F6E8F
:100400002028756E6974732F7332293A20503C701E
:1004100072696E745F616363656C3E20523C726505
:1004200074726163745F616363656C3E20543C74F5
:10043000726176656C5F616363656C3E0A0020459E
:1004400000205A0020590020204D32303120580021
:100450004D6178696D756D20416363656C6572618E
:1004600074696F6E2028756E6974732F7332293A20
:100470000A00204500205A0020590020204D32302B
:10048000332058004D6178696D756D20666565642F
:1004900072617465732028756E6974732F73293ABD
:1004A0000A00204500205A0020590020204D3932F2
:1004B00020580053746570732070657220756E69E2
:1004C000743A0A0020204D3134392043203B205516
:1004D0006E69747320696E2043656C736975730A65
:1004E000002020473231202020203B00486F6D69DA
:1004F0006E67206661696C656400545249474745E0
:10050000524544006F70656E003A20007A5F6D6955
:100510006E00795F6D696E00785F6D696E0052657F
:10052000706F7274696E6720656E6473746F70208B
:100530007374617475730A000A4D65617375726531
:100540006420706F696E74733A0A005A206F666691
:100550007365743A20004E756D20582C593A203539
:100560002C350A0020746F6F206C6F6E67206578E1
:1005700074727573696F6E2070726576656E7465DE
:10058000640A0020636F6C64206578747275736907
:100590006F6E2070726576656E7465640A0024F46F
:1005A000D43050C38E20C2A24017828B7011127AB1
:1005B000910D816CD90AA861E108C758660761519D
:1005C00043061E4B5D05C145A7041A411104093DB0
:1005D0009803713931034036DB0265339102D43020
:1005E0005402802E1D02632CEE01752AC501B0282D
:1005F000A001102781018F2564012B244B01E022EB
:100600003401AC211F018D200D01801FFC00841ED0
:10061000ED00971DDF00B81CD200E61BC600201BB2
:10062000BC00641AB200B219A8000A19A0006A1826
:100630009900D117910040178B00B5168400311630
:100640007E00B31579003A157300C7146F00581473
:100650006A00EE1366008813630025135E00C7125C
:100660005B006C12570015125400C111510070113B
:100670004F0021114B00D61049008D104700461045
:10068000440002104200C00F4000800F3E00420FA5
:100690003C00060F3B00CB0E3800930E37005C0E7B
:1006A0003500270E3400F30D3200C10D3100900DDE
:1006B0003000600D2E00320D2D00050D2C00D90CE0
:1006C0002B00AE0C2900850C29005C0C2700350C92
:1006D00027000E0C2600E80B2400C40B2400A00BFE
:1006E00023007D0B23005A0B2100390B2100180B2E
:1006F0002000F80A1F00D90A1E00BB0A1E009D0A2E
:100700001D00800A1D00630A1C00470A1B002C0AFA
:100710001B00110A1A00F7091A00DD091900C409A3
:100720001900AB091900920917007B091800630929
:1007300017004C09160036091600200916000A0990
:100740001500F5081500E0081400CC081400B808DE
:100750001400A4081400900813007D0812006B0810
:10076000130058081200460812003408110023082C
:1007700011001208110001081100F0071000E00735
:100780001000D0071000C0071000B0070F00A1072D
:10079000100091070E0083070F0074070F00650714
:1007A0000E0057070E0049070E003B070D002E07ED
:1007B0000E0020070D0013070D0006070D00F906B7
:1007C0000C00ED060D00E0060C00D4060C00C80677
:1007D0000C00BC060C00B0060C00A4060B00990629
:1007E0000C008D060B0082060B0077060B006C06D2
:1007F0000B0061060A0057060B004C060A00420671
:100800000A0038060A002E060A0024060A001A0604
:100810000A001006090007060A00FD050900F40594
:100820000900EB050900E2050900D9050900D0051A
:100830000900C7050900BE050900B5050800AD059A
:100840000800A50509009C050800940508008C0512
:100850000800840508007C050800740508006C0584
:100860000700650508005D050700560508004E05F0
:100870000700470507004005080038050700310557
:1008800007002A050700230507001C0506001605BA
:1008900007000F0507000805060002050700FB0416
:1008A0000600F5040700EE040600E8040600E20472
:1008B0000700DB040600D5040600CF040600C904C7
:1008C0000600C3040600BD040600B7040600B10418
:1008D0000500AC040600A6040600A00405009B0465
:1008E000060095040500900406008A0405008504AE
:1008F0000500800406007A040500750405007004F4
:1009000005006B04050066040500610405005C0435
:10091000050057040500520405004D040500480475
:100920000500430405003E0404003A0405003504B4
:100930000500300404002C040500270404002304EF
:1009400005001E0404001A04040016040500110426
:1009500004000D040400090405000404040000045C
:100960000400FC030400F8030400F4030400F00393
:100970000400EC030400E8030400E4030400E003C3
:100980000400DC030400D8030400D4030400D003F3
:100990000400CC030400C8030300C503030024F4CF
:1009A00004D9201BC40C5C0E9804C4095F026507BF
:1009B0007101F405F900FB04B30048048700C1038A
:1009C00069005803550003034500BE023A00840243
:1009D000310053022A002902250004022000E4010C
:1009E0001C00C8011900AF01170098011400840110
:1009F0001300710110006101100051010E0043014C
:100A00000D0036010B002B010B0020010B0015011E
:100A100009000C01090003010800FB000800F300B5
:100A20000800EB000700E4000600DE000600D80026
:100A30000600D2000600CC000500C7000500C20079
:100A40000500BD000400B9000400B5000400B100B9
:100A50000400AD000400A9000400A5000300A200EA
:100A600003009F0004009B00030098000300950012
:100A7000020093000300900003008D0002008B0031
:100A80000300880002008600020084000300810049
:100A900002007F0002007D0002007B00020079005E
:100AA000020077000100760002007400020072006C
:100AB0000100710002006F0002006D0001006C0077
:100AC00002006A0001006900020067000100660080
:100AD0000100650001006400020062000100610085
:100AE0000100600001005F0002005D0001005C0089
:100AF00001005B0001005A0001005900010058008C
:100B0000010057000100560001005500010054008B
:100B10000100530000005300010052000100510089
:100B20000100500001004F0001004E0000004E0087
:100B300001004D0001004C0001004B0000004B0083
:100B400001004A000100490001004800000048007F
:100B5000010047000100460000004600010045007A
:100B60000000450001004400010043000000430074
:100B7000010042000000420001004100000041006D
:100B80000100400001003F0000003F0001003E0066
:100B900000003E0001003D0000003D0001003C005F
:100BA00000003C0000003C0001003B0000003B0056
:100BB00001003A0000003A0001003900000039004D
:100BC0000100380000003800000038000100370044
:100BD000000037000100360000003600000036003B
:100BE0000100350000003500000035000100340030
:100BF0000000340000003400010033000000330026
:100C0000000033000100320000003200000032001A
:100C1000010031000000310000003100010030000F
:100C2000000030000000300001002F0000002F0005
:100C300000002F0000002F0001002E0000002E00F9
:100C400000002E0001002D0000002D0000002D00EE
:100C500000002D0001002C0000002C0000002C00E2
:100C600000002C0001002B0000002B0000002B00D6
:100C700000002B0001002A0000002A0000002A00CA
:100C800000002A00010029000000290000002900BE
:100C900000002900000029000100280000002800B1
:100CA00000002800000028000000280001002700A4
:100CB0000000270000002700000027000000270098
:100CC000010026000000260000002600000026008B
:100CD000000026000100250000002500000025007E
:100CE0000000250000002500000025000100240070
:100CF0000000240000002400000024000000240064
:100D00000100230000002300000023000000230056
:100D10000000230000002300000023000100220047
:100D2000000022000000220000002200000022003B
:100D3000000022000100210000002100000021002D
:100D4000000021000000210000002100000021001F
:100D50000100200000002000000020000000200012
:100D60000000200000002000000020000000200003
:100D700001001F0000001F0000001F0000001F00F6
:100D800000001F0000001F0000001F0001001E00E7
:100D900000001E0000001E0000001E0000000437BE
:100DA00000001E290000511B00005810000010090F
:100DB0000000CC04000078020000410100006265E0
:100DC000640A002C2073797374656D2073746F70DE
:100DD00070656421204865617465725F49443A20FA
:100DE000004265642068656174696E6720666169A8
:100DF0006C65640048656174696E67206661696C42
:100E000065640045312048656174696E67206661DC
:100E1000696C65640048656174696E672066616924
:100E20006C6564001000C90210012C014001220110
:100E300070011801B0010E01F00104015002FA0026
:100E4000B002F0003003E600D003DC009004D200D2
:100E50007005C800A006BE000008B400B009AA00D2
:100E6000D00BA000600E960060118C00001582006F
:100E700020197800C01D6E00A0226400B0275A001F
:100E8000902C500000314600E0343C001038320015
:100E9000903A2800603C1E00A03D1400803E0A00ED
:100EA000203F0000453120544845524D414C2052CE
:100EB000554E415741590042454420544845524DF2
:100EC000414C2052554E4157415900546865726D4E
:100ED000616C2052756E61776179004531204572F1
:100EE000723A204D415854454D50004572723A2097
:100EF0004D415854454D5020424544004D415854B1
:100F0000454D5020747269676765726564004531AC
:100F1000204572723A204D494E54454D500045725D
:100F2000723A204D494E54454D5020424544004DA3
:100F3000494E54454D502074726967676572656407
:100F400000202F002042403A0020403A0025753A08
:100F50002530327500253032753A2530327500253E
:100F6000756420253032753A25303275005A0059A3
:100F700000580009200000000000000000000000F0
:100F800000003FFFF0000000000000000000000033
:100F900000380070000000000000000000000000A9
:100FA00030FC3000000000000000000000000020C5
:100FB000FC1000000000000000000000000020788D
:100FC00010000000000000000000000000203010B1
:100FD0000000000000000000000000002C00D03FD6
:100FE000C0000000000000002082002E31D07FE011
:100FF000000000000000001041002F7BD07FE000C7
:101000000000000000001041002F7BD07FE00000B6
:1010100000000000002082002E31D03FC000000000
:10102000000000004104002C00D03FC00000000080
:101030000000008208002030107FE0000000000067
:1010400000008208002078107FE00000000000000F
:101050000041040020FC107FE000000000000000C0
:1010600020820030FC301F800000000000000000E3
:1010700000003800700F0000000000000000FFFFBB
:10108000C03FFFF0060000000000000000FFFFC0AE
:101090000000000000000000000000000000003F11
:1010A000FFF0000000000000000000000000380019
:1010B00070000000000000000000000000318630D9
:1010C0000000000000000000000000002387100066
:1010D00000000000000000000000002787900000D2
:1010E000000000000000000000002F87D00000007A
:1010F0000000000000000000002F03D03FC00000EF
:1011000000000000002082002030107FE00000007E
:10111000000000001041002078107FE00000000077
:101120000000001041002078107FE0000000000067
:1011300000002082002030103FC0000000000000AE
:10114000004104002F03D03FC00000000000000059
:101150008208002F87D07FE000000000000000829E
:1011600008002787907FE000000000000000410495
:10117000002387107FE000000000000000208200B4
:101180003186301F800000000000000000000038A1
:1011900000700F0000000000000000FFFFC03FFFD4
:1011A000F0060000000000000000FFFFC00000008B
:1011B00043617065466561722050504520526561FB
:1011C00064792E005072696E74696E672E2E2E003F
:1011D0005072696E7420706175736564004D3132B0
:1011E00035004D3234005072696E742061626F7246
:1011F000746564004D3231004E6F205344206361AA
:101200007264004368616E676520534420636172B5
:1012100064004D3231005072696E742066726F6DD9
:101220002053440053746F70207072696E740052C2
:101230006573756D65207072696E7400496E6974AE
:101240002E205344206361726400506175736520E1
:101250007072696E7400436F6E74726F6C005072BE
:1012600065706172650054756E6500496E666F2029
:1012700073637265656E0042616279737465702094
:101280005A004368616E67652066696C616D656EC2
:1012900074004368616E67652066696C616D656E98
:1012A00074004D36303020423000426162797374F0
:1012B0006570205A00466C6F7700466C6F77004669
:1012C000616E2073706565640046616E20737065A1
:1012D00065640042656400426564004E6F7A7A6C12
:1012E00065004E6F7A7A6C6500426564205A004250
:1012F0006564205A005370656564005370656564C9
:10130000004D61696E005072656865617420504CD3
:101310004120456E64005072656865617420504CD0
:101320004120426564005072656865617420504CCC
:101330004100507265706172650050726568656148
:10134000742041425320456E6400507265686561A7
:1013500074204142532042656400507265686561A3
:1013600074204142530050726570617265004261A1
:10137000636B004E65787420506F696E74004C6525
:1013800076656C696E6720446F6E6521004D6F76DF
:1013900065205A00473239205332004E6578742058
:1013A000506F696E74002569202F20257500473223
:1013B000392053310047323920533200436C69637E
:1013C0006B20746F20426567696E00486F6D696EAF
:1013D000672058595A00473238004C6576656C20B2
:1013E000636F726E65727300426564205A004265D5
:1013F00064205A004F6666004F6E200042656420EC
:101400004C6576656C696E670053746F7265207306
:10141000657474696E6773004C6576656C206265EF
:10142000640050726570617265004D34323800504E
:1014300072656865617420504C4100436F6F6C6445
:101440006F776E0050726568656174204142530089
:101450004368616E67652066696C616D656E7400D6
:101460004368616E67652066696C616D656E7400C6
:101470004D3630302042300044697361626C652023
:101480007374657070657273004D38340053657401
:1014900020686F6D65206F666673657473004265C2
:1014A00064204C6576656C696E6700486F6D6520D9
:1014B0005A00473238205A00486F6D65205900475E
:1014C0003238205900486F6D652058004732382067
:1014D00058004175746F20686F6D650047323800A1
:1014E0004D6F76652061786973004D61696E004DBE
:1014F0006F76652058004D6F76652059004D6F76E8
:1015000065205A004578747275646572004D6F7677
:101510006520302E316D6D004D6F766520316D6D1B
:10152000004D6F76652031306D6D004D6F76652012
:1015300061786973004578747275646572004D6FE7
:101540007665205A004D6F76652059004D6F76659F
:101550002058004578747275646572004D6F766529
:10156000205A004D6F76652059004D6F76652058E2
:101570000050726570617265005265736574204534
:101580004550524F4D00436F6E74726F6C00526540
:1015900073657420454550524F4D0053746F72650A
:1015A0002073657474696E67730046696C616D655C
:1015B0006E74004D6F74696F6E0054656D70657266
:1015C0006174757265004D61696E004D3330332072
:1015D000553120452569205325690050726568659D
:1015E00061742041425320636F6E660050726568DB
:1015F00065617420504C4120636F6E660050494411
:10160000204175746F74756E6500504944204175B2
:10161000746F74756E65005049442D440050494400
:101620002D44005049442D49005049442D49005053
:1016300049442D50005049442D500046616E20739E
:10164000706565640046616E207370656564004274
:10165000656400426564004E6F7A7A6C65004E6F77
:101660007A7A6C6500436F6E74726F6C0053746F9E
:1016700072652073657474696E67730042656400F7
:10168000426564004E6F7A7A6C65004E6F7A7A6CB0
:10169000650046616E2073706565640046616E206A
:1016A00073706565640054656D7065726174757200
:1016B0006500656E7175657565696E672022004B02
:1016C000494C4C45442E200053544F505045442E15
:1016D00020005072696E7465722073746F7070654B
:1016E000642064756520746F206572726F72732E4A
:1016F0002046697820746865206572726F72206177
:101700006E6420757365204D39393920746F2072ED
:101710006573746172742E202854656D70657261F2
:10172000747572652069732072657365742E205319
:1017300065742069742061667465722072657374C3
:10174000617274696E67290A004E6F204368656391
:101750006B73756D2077697468206C696E65206E97
:10176000756D6265722C204C617374204C696E65D6
:101770003A20004E6F20436865636B73756D207768
:10178000697468206C696E65206E756D6265722C77
:10179000204C617374204C696E653A200063686563
:1017A000636B73756D206D69736D617463682C2054
:1017B0004C617374204C696E653A20004C696E650B
:1017C000204E756D626572206973206E6F74204CB7
:1017D000617374204C696E65204E756D6265722B65
:1017E000312C204C617374204C696E653A20004D99
:1017F000313130004D333100534420726561642033
:101800006572726F720A00446F6E65207072696E45
:1018100074696E672066696C650A0020496E76619E
:101820006C696420657874727564657220000000CC
:101830000000000000000000000000006B430000FA
:101840006B4300007A43206E6F7420656E7465727E
:1018500065642E0A00205A3A0020593A0020436F4E
:10186000756E7420583A0020453A00205A3A0020FC
:10187000593A00583A0023646566696E652044450C
:101880004641554C545F4B64200023646566696E85
:10189000652044454641554C545F4B692000236404
:1018A0006566696E652044454641554C545F4B70F2
:1018B0002000504944204175746F74756E65206630
:1018C000696E697368656421205075742074686559
:1018D000206C617374204B702C204B6920616E6406
:1018E000204B6420636F6E7374616E747320667234
:1018F0006F6D2062656C6F7720696E746F20436F27
:101900006E66696775726174696F6E2E680A005041
:101910004944204175746F74756E65206661696C09
:101920006564212074696D656F75740A0045312006
:10193000544845524D414C2052554E415741590053
:10194000546865726D616C2052756E6177617900C3
:1019500045312048656174696E67206661696C6510
:10196000640048656174696E67206661696C6564CE
:1019700000504944204175746F74756E652066612E
:10198000696C6564212054656D706572617475724F
:101990006520746F6F20686967680A00204B643A9D
:1019A0002000204B693A2000204B703A20000A208A
:1019B000436C617373696320504944200A002054CA
:1019C000753A2000204B753A2000206D61783A204E
:1019D00000206D696E3A200020643A200020626980
:1019E00061733A2000504944204175746F74756EDC
:1019F000652073746172740A005049442041757403
:101A00006F74756E65206661696C6564212054652C
:101A10006D706572617475726520746F6F2068698E
:101A200067680A00504944204175746F74756E658B
:101A3000206661696C656421204261642065787468
:101A40007275646572206E756D6265720A00536C02
:101A50006565702E2E2E00206F6620004D424C20B2
:101A600047323920706F696E742000290A005920AE
:101A70006F7574206F662072616E67652028312D46
:101A800000290A0058206F7574206F662072616EFD
:101A900067652028312D004D6573682070726F6274
:101AA000696E6720646F6E652E0A005374617274EC
:101AB000206D6573682070726F62696E6720776948
:101AC00074682022473239205331222066697273AC
:101AD000742E0A004732380A473239205332004DFB
:101AE00065736820626564206C6576656C696E67F5
:101AF00020686173206E6F20646174612E0A005348
:101B0000746174653A200053206F7574206F6620ED
:101B100072616E67652028302D35292E0A004D65CB
:101B2000736820706F696E742063616E6E6F7420CD
:101B30006265207265736F6C7665640A00436C6938
:101B4000636B20746F20726573756D652E2E2E0089
:101B50004E6F206D6F76652E00456E642066696C51
:101B600065206C6973740A00426567696E20666956
:101B70006C65206C6973740A004D31323500286E33
:101B80006F2066696C65290043757272656E7420FA
:101B900066696C653A20005344207072696E7469FE
:101BA0006E67206279746520004E6F742053442064
:101BB0007072696E74696E670A0044656C65746959
:101BC0006F6E206661696C65642C2046696C653AAD
:101BD000200046696C652064656C657465643A0034
:101BE0002569730025696D202569730025696820C2
:101BF00025696D20256973002569642025696820A1
:101C000025696D202569730025697920256964207F
:101C10002569682025696D20256973005072696EF9
:101C2000742074696D653A20004B494C4C45442E34
:101C300020006F6B0020573A004520436F6F6C699E
:101C40006E672E2E2E00452048656174696E672EE2
:101C50002E2E0020573A0042656420636F6F6C6936
:101C60006E672E2E2E004265642068656174696E71
:101C7000672E2E2E004361706546656172205050BC
:101C800045204F66662E002C20002C20004649522D
:101C90004D574152455F4E414D453A4D61726C6919
:101CA0006E20544833442055312E52322E41382074
:101CB000534F555243455F434F44455F55524C3A4D
:101CC0002050524F544F434F4C5F56455253494F4B
:101CD0004E3A312E30204D414348494E455F5459CC
:101CE00050453A4361706546656172205050452009
:101CF00045585452554445525F434F554E543A311E
:101D000020555549443A0A002F2F20002054002026
:101D10005200416363656C65726174696F6E3A204D
:101D200050005741524E494E4721204C6F77205A60
:101D3000204A65726B206D6179206C656164207446
:101D40006F20756E77616E74656420706175736560
:101D5000732E0A0020466C6F773A2000496E766138
:101D60006C69642065787472756465720A00206419
:101D70003A0020693A0020703A004E6F2063617388
:101D800065206C696768740A00426564204C65765A
:101D9000656C696E6720004661696C656420746FCC
:101DA00020656E61626C6520426564204C657665D5
:101DB0006C696E670A004D65736820426564204C4B
:101DC0006576656C20646174613A0A00454550523D
:101DD0004F4D204F4B0A00496E736572742066693F
:101DE0006C616D656E7420616E64207072657373D2
:101DF00020627574746F6E0A00507265737320628E
:101E00007574746F6E20746F2068656174206E6FD6
:101E10007A7A6C650A00496E736572742066696C23
:101E2000616D656E7420616E6420707265737320DD
:101E3000627574746F6E20286F72204D31303829AE
:101E40000A0041637469766520457874727564652B
:101E5000723A2000496E76616C696420657874720C
:101E6000756465720A00526573656E643A20006F8E
:101E70006B0020746F6F206C6F6E672065787472D2
:101E80007573696F6E2070726576656E7465640A2D
:101E90000020636F6C6420657874727573696F6E6F
:101EA0002070726576656E7465640A006275737978
:101EB0003A2070617573656420666F7220696E7078
:101EC00075740A00627573793A2070617573656480
:101ED00020666F7220757365720A00627573793AB5
:101EE0002070726F63657373696E670A00506C656A
:101EF000617365207265736574005052494E544594
:101F0000522048414C544544005072696E746572C9
:101F10002068616C7465642E206B696C6C282920C4
:101F200063616C6C6564210A000000000000000021
:101F300000000000000000204200002042000000DD
:101F400041000000005761726E696E673A20486F69
:101F50006D696E672042756D702044697669736F94
:101F600072203C20310A000202040000A040000060
:101F7000A0400000004000006B4300006B430000E5
:101F80007A43FFFFFF4D3630303A20546F6F2063A5
:101F90006F6C6400486F74656E6420746F6F2063AB
:101FA0006F6C640A007C3C3E5E2B3D3F2F5B5D3BCB
:101FB0002C2A225C004572726F72207772697469F4
:101FC0006E6720746F20454550524F4D210A0056D0
:101FD00054726176206D696E005654726176206D80
:101FE000696E00566D696E00566D696E00566D61C2
:101FF00078204500566D6178204500566D61782047
:102000005A00566D6178205A00566D61782059004B
:10201000566D6178205900566D6178205800566DD4
:1020200061782058004D6F74696F6E00416D617862
:10203000204500416D6178204500416D6178205A4E
:1020400000416D6178205A00416D6178205900414E
:102050006D6178205900416D6178205800416D61B3
:1020600078205800412D74726176656C00412D74A2
:10207000726176656C00412D7265747261637400E3
:10208000412D7265747261637400416363656C0015
:10209000416363656C004D6F74696F6E0056652D0A
:1020A0006A65726B0056652D6A65726B00567A2DF3
:1020B0006A65726B00567A2D6A65726B0056792DCF
:1020C0006A65726B0056792D6A65726B0056782DC1
:1020D0006A65726B0056782D6A65726B004D6F747D
:1020E000696F6E004573746570732F6D6D00457375
:1020F000746570732F6D6D005A73746570732F6DF6
:102100006D005A73746570732F6D6D00597374652B
:1021100070732F6D6D005973746570732F6D6D0042
:102120005873746570732F6D6D0058737465707398
:102130002F6D6D004D6F74696F6E00537465707311
:102140002F6D6D004A65726B00416363656C65724B
:102150006174696F6E0056656C6F636974790043D2
:102160006F6E74726F6C004C6F6164206D6D004C0B
:102170006F6164206D6D00556E6C6F6164206D6DD4
:1021800000556E6C6F6164206D6D00436F6E7472EC
:102190006F6C0043616E6E6F7420656E74657220A3
:1021A0007375626469723A2000022E2E0001526536
:1021B0006672657368004D61696E004D373032207C
:1021C000542564004D3630302042302054256400C0
:1021D0004D373032203B2564004D373031205425B7
:1021E00064004368616E67652066696C616D656E49
:1021F00074005072656865617420414253005072EA
:10220000656865617420504C41004368616E676584
:102210002066696C616D656E74005052494E5420A1
:1022200050415553454400554E4C4F41442046497A
:102230004C414D454E54004C4F41442046494C4181
:102240004D454E54005075726765206D6F72650084
:10225000436F6E74696E756500524553554D452048
:102260004F5054494F4E533A0020204E6F7A7A6CAB
:10227000653A20006368616E6765006F6620746868
:10228000652066696C616D656E74005761697420C4
:10229000666F722073746172740020204E6F7A7AB8
:1022A0006C653A2000200066696C616D656E742073
:1022B000756E6C6F6164005761697420666F72009F
:1022C00020204E6F7A7A6C653A20002000506C65B1
:1022D00061736520776169742E2E2E0048656174E4
:1022E000696E67206E6F7A7A6C650020204E6F7A77
:1022F0007A6C653A2000200068656174206E6F7A00
:102300007A6C652E00507265737320627574746FF9
:102310006E20746F0020204E6F7A7A6C653A200030
:10232000746F20636F6E74696E75652E2E2E00615A
:102330006E6420707265737320627574746F6E00C2
:10234000496E736572742066696C616D656E7400A8
:1023500020204E6F7A7A6C653A2000200066696C06
:10236000616D656E74206C6F6164005761697420E3
:10237000666F720020204E6F7A7A6C653A200020DA
:102380000066696C616D656E7420707572676500BA
:102390005761697420666F7200746F20726573757F
:1023A0006D65005761697420666F72207072696E86
:1023B0007400000000010200090A0000000004038C
:1023C00008070000000000000000000000000000FE
:1023D0000000022020506C616E6E65724275666668
:1023E000657242797465733A2000204672656520F3
:1023F0004D656D6F72793A2000436F6D70696C6541
:10240000643A2041707220313620323032300A0076
:10241000207C20417574686F723A202854483344F8
:10242000290A0000204C6173742055706461746542
:10243000643A2000544833442055312E52322E4104
:10244000380A004D61726C696E0020536F667477B4
:102450006172652052657365740A00205761746368
:1024600068646F672052657365740A002042726F5A
:10247000776E206F75742052657365740A0020456D
:10248000787465726E616C2052657365740A0050D1
:102490006F77657255700A0073746172740A006117
:1024A00075746F25692E67006572726F722077727E
:1024B0006974696E6720746F2066696C650A0045EF
:1024C0006E6473746F707320256320256320256309
:1024D00020256300205A3A0020593A0020583A003B
:1024E000656E6473746F7073206869743A20004479
:1024F0006F6E6520736176696E672066696C652E04
:102500000A004D3239004D3234004D3233202573EC
:1025100000556E6B6E6F776E20636F6D6D616E64CC
:102520003A202200496E736572742066696C616D91
:10253000656E7420616E64207072657373206275BD
:1025400074746F6E20286F72204D313038290A0064
:10255000486F74656E6420746F6F20636F6C640ADB
:102560000053442063617264206F6B0A006F7065D2
:102570006E526F6F74206661696C65640A00766FD5
:102580006C756D652E696E6974206661696C656431
:102590000A00534420696E6974206661696C0A0000
:1025A000486F6D65202573257325732066697273E6
:1025B00074002066697273740A005A00590058004A
:1025C000486F6D65200057726974696E6720746F7B
:1025D0002066696C653A20006F70656E20666169DF
:1025E0006C65642C2046696C653A20006F70656EDE
:1025F000206661696C65642C2046696C653A200030
:1026000046696C652073656C65637465640A0020B7
:1026100053697A653A200046696C65206F70656E73
:1026200065643A20002066696C653A2000646F6931
:102630006E67006672657368004E6F772000454EC6
:102640004420535542524F5554494E450A002220CA
:10265000706F73002220706172656E743A220053AD
:102660005542524F5554494E452043414C4C2074DD
:1026700061726765743A22004B494C4C45442E20E8
:1026800000747279696E6720746F2063616C6C20CE
:102690007375622D67636F64652066696C6573206E
:1026A0007769746820746F6F206D616E79206C6536
:1026B00076656C732E204D4158206C6576656C20D4
:1026C00069733A004572726F723A006F70656E20DE
:1026D0006661696C65642C2046696C653A2000432C
:1026E000616E6E6F74206F70656E207375626469C1
:1026F0007220006563686F3A000000220025002800
:10270000002B0000002100240027002A0002020202
:102710000202020202040404040404040403030386
:10272000030303030301010101010101010102048B
:10273000081020408001020408102040800102049B
:102740000810204080804020100804020100060983
:1027500000FE0701920321207FFF07FF07FF000013
:1027600000060000010707060200808080808000CC
:1027700080030202060105A0A0050707060000501D
:1027800050F850F850500507070600002078A07058
:1027900028F020050707060000C0C8102040981840
:1027A0000507070600006090A040A8906802030398
:1027B000060104C040800307070601002040808016
:1027C0008040200307070601008040202020408031
:1027D00005050506000120A870A8200505050600CE
:1027E000012020F820200203030602FFC0408005DC
:1027F0000101060003F8020202060200C0C005053E
:10280000050600010810204080050707060000703B
:1028100088888888887003070706010040C0404008
:102820004040E0050707060000708808708080F8C7
:10283000050707060000F81020100808F005070734
:1028400006000010305090F8101005070706000031
:10285000F880F0080888700507070600007080807F
:10286000F0888870050707060000F808102020206F
:1028700020050707060000708888708888700507A3
:1028800007060000708888780808700205050602AF
:1028900000C0C000C0C00206060602FFC0C000C0E3
:1028A00040800407070600001020408040201005EB
:1028B0000303060002F800F8040707060100804041
:1028C00020102040800507070600007088081020AF
:1028D000002005070706000070880868A8A8700592
:1028E0000707060000708888F888888805070706AB
:1028F0000000F08888F08888F0050707060000705F
:10290000888080808870050707060000F088888826
:102910008888F0050707060000F88080F08080F8BE
:10292000050707060000F88080F080808005070713
:10293000060000708880B8888870050707060000C8
:10294000888888F8888888010707060200808080C8
:102950008080808005070706000038101010109056
:10296000600507070600008890A0C0A090880507B2
:1029700007060000808080808080F8050707060039
:102980000088D8A8888888880507070600008888F6
:10299000C8A8988888050707060000708888888876
:1029A0008870050707060000F08888F080808005A1
:1029B000070706000070888888A890680507070642
:1029C0000000F08888F0A0908805070706000078CE
:1029D0008080700808F0050707060000F820202016
:1029E00020202005070706000088888888888870CE
:1029F0000507070600008888888888502005070793
:102A00000600008888888888A85005070706000007
:102A10008888502050888805070706000088888825
:102A200050202020050707060000F80810204080ED
:102A3000F8030707060100E08080808080E005053C
:102A4000050600018040201008030707060100E08A
:102A50002020202020E005030306000420508805E4
:102A60000101060000F80202020602058040050589
:102A700005060000700878887805070706000080C2
:102A800080B0C88888F00505050600007080808841
:102A9000700507070600000808689888887805050B
:102AA000050600007088F8807005070706000030F2
:102AB00048E0404040400506060600FF70888878E0
:102AC00008700507070600008080B0C88888880164
:102AD00007070602008000808080808003080806C7
:102AE00001FF200020202020A0400407070600004E
:102AF000808090A0C0A090030707060100C040405E
:102B0000404040E0050505060000D0A8A8A8A8059B
:102B10000505060000B0C888888805050506000080
:102B200070888888700506060600FFF08888F080A7
:102B3000800506060600FF788888780808050505E0
:102B4000060000B0C8808080050505060000708082
:102B50007008F00407070600004040E040404030A5
:102B600005050506000088888898680505050600A3
:102B70000088888850200505050600008888A8A8D8
:102B800050050505060000885020508805060606F9
:102B900000FF888888780870050505060000F81091
:102BA0002040F803070706010020404080404020F5
:102BB000010707060200808080808080800307076D
:102BC00006010080404020404080050202060002CD
:102BD000689000000006000000060900FE000000EA
:102BE000000001090008FE0000050808060000407A
:102BF000F0C88888987810050808060000C0F88892
:102C000088888888F80505050600012030F83020FE
:102C10000508080600002070F820202020E00509A3
:102C2000090600FF2070A8A8B88888702005090947
:102C30000600FFE080C0B0A8283028280509090652
:102C400000FFF8A88888888888A8F8050A0A06007E
:102C5000FE205050505088A8A88870030303060037
:102C60000340A0402BE30DE311241FBECFEFD0E4BF
:102C7000DEBFCDBF12E0A0E0B1E0E0EFFBEE01E08F
:102C80000BBF02C007900D92AE32B107D9F72CE20C
:102C9000AEE2B2E001C01D92A337B207E1F716E140
:102CA000C3E3D6E104C02197FE010E9448F5C23378
:102CB000D107C9F70E9490E40C94EBF50C94000046
:102CC0002CEA35EC47E25EE36091281770912917F2
:102CD00080912A1790912B170E9469F360931C161C
:102CE00070931D1680931E1690931F1608952CEA5C
:102CF00035EC47E25EE360912C1770912D178091BF
:102D00002E1790912F170E941BEF6093201670933F
:102D10002116809322169093231608956091110135
:102D200070911201072E000C880B990B0E94BCEECB
:102D30002AE037ED43E25CE30E941BEF60930D0154
:102D400070930E0180930F019093100108951198D4
:102D50000000000087FD52C0419800000000119A59
:102D60000000000011980000000086FD53C041984B
:102D700000000000119A00000000119800000000FF
:102D800085FD46C0419800000000119A0000000037
:102D900011980000000084FD39C041980000000037
:102DA000119A0000000011980000000083FD2CC063
:102DB000419800000000119A0000000011980000E6
:102DC000000082FD1FC0419800000000119A000021
:102DD000000011980000000081FD12C04198000021
:102DE0000000119A000000001198000000004198B6
:102DF00000000000119A000000000895419AADCF34
:102E0000419AEDCF419AE0CF419AD3CF419AC6CFB4
:102E1000419AB9CF419AACCF90916F00292F22707F
:102E200091FF05C090916F009D7F90936F0034E0FB
:102E3000839FC0011124FC01E753F84D408151816B
:102E4000628173818658994EFC014083518362836D
:102E5000738381E08093E815222329F080916F002D
:102E6000826080936F000895BC01209178163091A4
:102E7000791640917816509179162417350731F458
:102E800081E02617370709F080E008959A01F1CF15
:102E9000CF93DF9380912716329B5CC08160809333
:102EA000271680912716339957C08D7F8093271658
:102EB00080912716349952C08B7F8093271680917A
:102EC000271690912616981709F44AC092E090931D
:102ED00025168093261680912D19882309F44DC05C
:102EE000C0916B16C0FF10C08091311680FF0CC0DE
:102EF0008091241680FF08C080915C1981608093C6
:102F00005C1980E00E940C17C1FF10C0809131163F
:102F100081FF0CC08091241681FF08C080915C194C
:102F2000826080935C1981E00E940C17C2FF25C06B
:102F30008091311682FF21C08091241682FF1DC02E
:102F400080915C19846080935C1982E0DF91CF915D
:102F50000C940C178E7FA3CF8260A8CF8460ADCF76
:102F600080912516882309F4B6CF815080932516C9
:102F70008111B1CF90932416AECFDF91CF910895F8
:102F80000C9494BF0F931F93CF93DF93CDB7DEB70D
:102F90006E970FB6F894DEBF0FBECDBF80912301B0
:102FA0008F93809122018F931F921F928BEC95E15A
:102FB0009F938F938E010F5F1F4F1F930F930E945C
:102FC0004CEE81E080931419C8010E946F92109218
:102FD00014190FB6F894DEBF0FBECDBF6E960FB6B4
:102FE000F894DEBF0FBECDBFDF91CF911F910F913F
:102FF0000895CF92DF92EF92FF92CF93C82F0E9455
:1030000088BF6B017C0124EA30E74DE75FE3609104
:1030100022177091231780912417909125170E94F1
:10302000B5EE87FD18C08AEF90E0A0E0B0E08C0D0F
:103030009D1DAE1DBF1D8093041990930519A0938B
:103040000619B0930719C0933601CF91FF90EF9006
:10305000DF90CF90089580E090E0DC01E8CFCF933F
:10306000DF9300D000D0CDB7DEB7882349F00E94AF
:1030700084C90F900F900F900F90DF91CF9108951A
:1030800088EB91E09C838B8384E190E09A83898331
:10309000BE016D5F7F4FCE0101960E949DBBE9CFBF
:1030A0009F92AF92BF92CF92DF92EF92FF920F93D7
:1030B0001F93CF93DF935B01E9014A3009F4C4C049
:1030C000453109F067C0DB011296ED91FC91F28069
:1030D000C681D781139A88E290E00197F1F7EF2C2F
:1030E000E29420EFE22230E1932E9F0C48E2C42EBE
:1030F000D12C88EF0E94A716C6010197F1F7BFE116
:10310000BF1508F488C08F2D807780680E94A716AD
:103110008E2D0E94A716C6010197F1F780E80E9444
:10312000A71680E00E94A716C6010197F1F78AEF63
:103130000E94A716C6010197F1F78E01005F1F4F8D
:103140008881807F0E94A71689918295807F0E9446
:10315000A716C017D107A1F7C6010197F1F7F3949D
:10316000E0E1EE0EF910C5CF1398D50112960D913E
:103170001C91C8010E9491C18111FEC1DF91CF91C4
:103180001F910F91FF90EF90DF90CF90BF90AF9085
:103190009F900895FB0102811381ECEEE40FE4336C
:1031A00008F050C0F0E0E952F74E0C9448F5641A6C
:1031B000B9182219AC1A2219221922192219221916
:1031C0002219221922192219221922192219221927
:1031D0002219221922192219221922192219221917
:1031E00022192219221922192219A61A2219221982
:1031F000221922192219221922192219771A2219A1
:1032000022192219221922192219221922192219E6
:103210002219C91A1E1980EE8F0D8068807F0E94C6
:10322000A7168F2D8295807F0E94A716C601019751
:10323000F1F780E80E94A71680E874CFD8011196B4
:103240008C91888381E09ACF0B9A1398399A419890
:10325000099A119A139A88E290E00197F1F788E7AA
:1032600090E0CEE9DFE0FE013197F1F70197D9F761
:1032700088EF0E94A71608E210E0C8010197F1F755
:1032800080E20E94A71680E00E94A716C80101975D
:10329000F1F780E00E94A71680E80E94A716C801F7
:1032A0000197F1F780E00E94A71680E10E94A7161F
:1032B000C8010197F1F7CE010197F1F7CE0101970F
:1032C000F1F7CE010197F1F7CE010197F1F7CE01A9
:1032D0000197F1F7CE010197F1F7CE010197F1F7D0
:1032E000CE010197F1F7CE010197F1F7CE010197D9
:1032F000F1F7CE010197F1F7CE010197F1F7CE0179
:103300000197F1F7CE010197F1F72197F1F780E2EC
:103310000E94A71680E40E94A716C8010197F1F742
:1033200080E20E94A71680E60E94A716C8010197B6
:10333000F1F700E010E0C8E2D0E0812F80778068EC
:103340000E94A716802F0E94A716CE010197F1F7C1
:1033500080E80E94A71680E00E94A716CE01019780
:10336000F1F78AEF0E94A716CE010197F1F780E2EC
:10337000119800000000419800000000119A000020
:103380000000119800000000419800000000119A10
:1033900000000000119800000000419800000000AB
:1033A000119A0000000011980000000041980000F0
:1033B0000000119A000000001198000000004198E0
:1033C00000000000119A00000000119800000000A9
:1033D000419800000000119A0000000011980000C0
:1033E0000000419800000000119A000000001198B0
:1033F00000000000419800000000119A0000000049
:10340000119800000000419800000000119A00008F
:103410000000119800000000419800000000119A7F
:10342000000000001198000000004198000000001A
:10343000119A00000000119800000000419800005F
:103440000000119A0000000011980000000041984F
:1034500000000000119A0000000011980000000018
:10346000419800000000119A00000000119800002F
:103470000000419800000000119A0000000011981F
:1034800000000000419800000000119A00000000B8
:10349000FE013197F1F7815009F06ACF88EF0E9461
:1034A000A716CE010197F1F71F5F005F103209F0F8
:1034B00044CF80E00E94A71680EC0E94A7162197B7
:1034C000F1F7139881E05ACED80115964C911597D3
:1034D00050E0440F551F70E060E016968D919C916E
:1034E0000E9483F5C8010E94A7C181E047CE89816F
:1034F0002B81D80112966C91129713964C91213022
:1035000009F467C0233009F048C038EF380F582F4E
:1035100091E0431708F490E041E0531708F040E0D1
:1035200031E0561708F430E0592F542B352319F4A5
:10353000942309F487CEFA8030E0F901E353FE4F7B
:10354000D08027533E4FF901E08040C0B901C80147
:103550000E947BC181E012CE1882D80112968C9114
:103560001297898315968C91159781508A831396AB
:103570008C918B8381E002CEF801458150E0440FAD
:10358000551F70E060E0868197810E9483F581E09D
:10359000F5CDF8018581888355CE481708F452CEC1
:1035A000861708F44FCEFA80E12CD12C243070F429
:1035B000C3CFBE01C8010E947BC1898198819D0D46
:1035C00098838E0D8983FF0C09F43CCEF7FEF6CF6D
:1035D000F0CF58E0580F382F9BCF3F924F925F9219
:1035E0006F927F928F929F92AF92BF92CF92DF9213
:1035F000EF92FF920F931F93CF93DF93EC01162F5F
:10360000DCAC5BAC5C0124E0A20EB11CE98DFA8D50
:10361000C5010995982EE884F984C7010E945FC30B
:10362000082F888599850E9462C3782E88248A9401
:10363000013011F48FE0882E888599850E9455C34A
:10364000082F888599850E9451C3C82E8885998541
:103650000E9459C3113670F0009761F0E80EF91E10
:1036600001E6C116B8F41C8A1F8A188E1D8A1E8AAC
:1036700080E05BC0888599850E945CC3113430F07E
:10368000009721F0E80EF91E01E4EBCF81E1E80E8E
:10369000F11CE7CFC01638F3872D90E0F701249195
:1036A0002F3F39F4FFEFEF1AFF0AC016E1F20F5F68
:1036B000F5CF101368C0888599850E945FC3970174
:1036C0002F5F3F4FF701882319F0823009F044C083
:1036D00084918F8BF9012491288FF7013396E4911F
:1036E000EC8BF7013496E491ED8BF7013596E4917C
:1036F000EE8BE114F10409F4BBCF888599850E9413
:1037000062C3782ECF88388C8D89580E1D2D1319E1
:103710008E89181B190D032D2C2D412F652DC501E8
:103720000E946CC3811138C08C899BAD890F8BAF0F
:1037300081E090E0DF91CF911F910F91FF90EF908A
:10374000DF90CF90BF90AF909F908F907F906F90C1
:103750005F904F903F9008958491982F9F70925062
:103760009E8B82958F708D8BF9012491822F8F70A3
:10377000888F22952F702F8BF7013296E491E29576
:10378000EF70EC8BB6CF3296E491E821E80FF92F79
:10379000F11DEE0EFF1E89CFE70CF11C07E00C0DAA
:1037A000069506950695310E4E01F0E28F0E911C9E
:1037B000602E712C131509F4B7CF452C670112C088
:1037C000F60184916E817F8148A219A31BA28AA36E
:1037D00094014BE3C5010E94AEC1FFEFCF1ADF0A8F
:1037E00028E0420E8C2D8E19801750F3E60CF71C42
:1037F0001F5FE0CF1F93CF93DF93182FEB01FE01E4
:103800008491219681110AC0C9E0D5E0FE0184911E
:103810002196882331F00E940B86F8CF0E940B86F8
:10382000EECFC4E0D5E0112311F0CAEFD4E0FE01E1
:1038300084912196882319F00E940B86F8CF8AE0A4
:10384000DF91CF911F910C940B86CF93DF93803D36
:103850009240A1F0C4ECD6E2FE0184912196811140
:103860000AC0C7ECD1E0FE0184912196882351F073
:103870000E940B86F8CF0E940B86EECF80E0DF918E
:10388000CF91089581E0FBCF4F925F926F927F922C
:103890008F929F92AF92BF92CF92DF92EF92FF9260
:1038A000CF93DF93CDB7DEB76A970FB6F894DEBF3C
:1038B0000FBECDBF9A8F898F5B014A01DC01D7967D
:1038C0006D917D918D919C91DA970E94BAEE6B017A
:1038D0007C01F50120813181428153810E941BEFDF
:1038E0000E9452F30E94E2F33B015C01D4012D914E
:1038F0003D914D915C91C701B6010E941BEF0E9462
:1039000052F30E94E2F36D827E82AF82B8862D81EF
:103910003E814F815885283731054105510540F4D6
:1039200028E730E040E050E02D833E834F83588706
:1039300069837A838B839C8389819A81AB81BC81E3
:1039400088379105A105B10540F428E730E040E053
:1039500050E029833A834B835C83E98DFA8DED5BDC
:10396000FF4F80819181A281B38189879A87AB873C
:10397000BC87BC01CD010E94BCEE2B013C016D81D6
:103980007E818F8198850E94BAEE698B7A8B8B8BB2
:103990009C8B20E030E0A901C301B2010E94B5EE8A
:1039A000882309F43BC1A7019601C701B6010E9413
:1039B0001BEF4B015C0129893A894B895C89CA015B
:1039C000B9010E941BEF9B01AC01C501B4010E942B
:1039D000E5F24B015C01A3019201C301B2010E9417
:1039E000E6F29B01AC01C501B4010E9469F30E949B
:1039F00052F30E94E2F36D877E878F87988B6985EB
:103A00007A858B859C8590958095709561957F4F83
:103A10008F4F9F4F0E94BCEE4B015C0169817A8100
:103A20008B819C810E94BAEE69877A878B879C87FD
:103A300020E030E0A901C501B4010E94B5EE882361
:103A400009F4F0C029853A854B855C85CA01B90126
:103A50000E941BEF6D8B7E8B8F8B988FA701960139
:103A6000C701B6010E941BEF9B01AC016D897E89E5
:103A70008F89988D0E94E5F26B017C01A50194016C
:103A8000C501B4010E94E6F29B01AC01C701B60179
:103A90000E9469F30E9411F4A98DBA8D95968D90BC
:103AA0009D90AD90BC909897750164012D853E85E1
:103AB0004F855889C21AD30AE40AF50A0E94E2F334
:103AC000C61AD70AE80AF90AF7FE6EC020E030E00D
:103AD000A901C301B2010E94B5EE882309F4A6C072
:103AE000C501B4010E94BAEE6B017C01A3019201F1
:103AF000C301B2010E94E6F29B01AC01C701B6010D
:103B00000E941BEF6B017C0129893A894B895C89F2
:103B1000CA01B9010E941BEF9B01AC01C701B601AC
:103B20000E94E5F26B017C0129853A854B855C8515
:103B3000CA01B9010E941BEF9B01AC01C701B6018C
:103B40000E94E6F26B017C0120E030E040E850E4A6
:103B5000C301B2010E941BEF9B01AC01C701B6017A
:103B60000E9469F30E9452F36B017C0120E030E077
:103B7000A9010E9469F418161CF0C12CD12C760101
:103B8000C701B6010E94E2F36D877E878F87988B0D
:103B900086169706A806B90620F48D869E86AF86FF
:103BA000B88AC12CD12C76018D859E85AF85B889C8
:103BB000E98DFA8D82A793A7A4A7B5A7C80ED91E31
:103BC000EA1EFB1EDF01C6A6D7A6E0AAF1AA2D8138
:103BD0003E814F81588523AF34AF45AF56AFDF9656
:103BE00029813A814B815C812D933D934D935C9368
:103BF00013976A960FB6F894DEBF0FBECDBFDF9164
:103C0000CF91FF90EF90DF90CF90BF90AF909F90BB
:103C10008F907F906F905F904F90089560E070E07C
:103C2000CB01E5CE60E070E0CB0134CF60E070E026
:103C3000CB0198CF8091F3158230B1F09091C528D7
:103C4000992359F08091D628811104C089EC98E21B
:103C50000C94A2BA86ED98E2FBCF813041F080EB64
:103C600091E16FEF0C9409D480ED91E1FACF84ECEF
:103C700091E1F7CF282F1092111980915F25909133
:103C80006025A0916125B091622581309048A10501
:103C9000B10540F010925F251092602510926125C9
:103CA0001092622580910C19882331F080915F2554
:103CB0008093011910920019809102191816FCF4D2
:103CC000082E000C990B821B910920910119022EDC
:103CD000000C330B2817390794F097FF02C090E0CF
:103CE00080E080930119092E000CAA0BBB0B809376
:103CF0005F2590936025A0936125B0936225809104
:103D000001196623A9F090910319891714F480937F
:103D1000031920910319022E000C330B2C5F3F4F27
:103D2000482F082E000C550B241735071CF484501F
:103D30008093031908958091F9168630D8F496E09F
:103D4000899FF0011124EB52F94E20913F013091EF
:103D500040013183208340915F255091602560911F
:103D600061257091622542835383648375838F5FDD
:103D70008093F9160895CF92DF92EF92FF920F93FE
:103D80001F93CF93DF93EC016A017B0180913F0188
:103D9000909140018C179D0781F125E3CC3FD2071C
:103DA000A9F58151904371F40E9488BF6053784F08
:103DB0008F4F9F4F6093D1167093D2168093D31676
:103DC0009093D416D0934001C0933F01C0925F25D9
:103DD000D0926025E0926125F0926225C151D043D6
:103DE00021F41092B9251092F91682E080934801CF
:103DF00081E08093001910921219DF91CF911F91E9
:103E00000F91FF90EF90DF90CF90089520E3C131A4
:103E1000D207C1F68C5F954319F0C1E1D0E3D2CF50
:103E20000E9488BF0091D1161091D2162091D3160E
:103E30003091D416601B710B820B930B97FFEDCF63
:103E40008091572890915828891B8F7321F4809175
:103E5000C528882311F3C1E8DFE1B4CF21E0209326
:103E6000B92560932217709323178093241790939A
:103E7000251740E050E0BA0180912617909127174E
:103E80000C94BB1E60E070E080E291E40C942E1F65
:103E900060E070E080E89FE30C942E1F6DEC7CECFA
:103EA0008CEC9DE30C942E1F81E08093B925109239
:103EB000C82740E050E0BA018DE596E20E94BB1EA3
:103EC00086ED93E190937925809378250C94AF89C2
:103ED00040E050E0BA018CE896E20E94BB1E81E00F
:103EE0008093FA1580912117811108C08EEA93E121
:103EF00090937925809378250C94AF8985EB93E195
:103F0000F7CF40E050E0BA0183ED96E20E94BB1E7D
:103F100010921C1710921D1710921E1710921F1747
:103F200081E08093B925089540E050E0BA0181E135
:103F300090E30C94BB1EE091F916EE2389F0E1505A
:103F4000E093F91686E0E89FF0011124EB52F94E58
:103F50004281538164817581808191810C94BB1E63
:103F60000C94941FDF92EF92FF920F931F93CF93C5
:103F7000DF9361E081E00E943A1EC091031985E061
:103F8000E82EEC0ED4E0DC1B13E01C1B02E00C1B43
:103F900081E0F82EFC1ADC2ED194C1112EC0809144
:103FA00001198823B1F080914801882359F081E0FC
:103FB00090910119911180E024E041E755E16D2DC8
:103FC0000E94B4C9CF5FEC12E8CF85E0809302195C
:103FD0000CC080911319882331F3109213190E9499
:103FE0009B1F809100198823F1F2DF91CF911F91DF
:103FF0000F91FF90EF90DF900895C13011F58091FF
:104000000119813079F0809148018823D9F281E04B
:1040100090910119913009F080E023E04AE655E1E2
:104020006F2DCECF80911319882369F31092131945
:1040300085E092E20E9408DB80910019882319F341
:10404000D4CFC23009F055C080910119823081F07F
:1040500080914801882309F4B5CF81E0909101193E
:10406000923009F080E023E043E655E1602FA8CFCD
:1040700080911319882361F3109213198AE092E258
:104080000E9408DB80910019882311F3AECF809144
:104090000119833081F080914801882309F492CF7F
:1040A00081E090910119933009F080E023E04CE524
:1040B00055E1612F85CF80911319882361F3109208
:1040C00013198FE092E20E9408DB80910019882387
:1040D00011F38BCF809113198823A1F0109213193B
:1040E00084E192E20E9408DB80910019882351F05C
:1040F0007CCFC33061F2C43009F064CF80910119E4
:10410000843041F380914801882309F45BCF81E03A
:1041100090910119943009F080E023E043E555E1E6
:104120006D2F4ECFCF92DF92EF92FF920F931F939E
:10413000CF93DF93182F709327176093261761E0B2
:1041400081E00E943A1EC091031985E0D82EDC0E52
:1041500081E004E00C1B93E0F92EFC1A92E0E92EBA
:10416000EC1AC82ECC1ADC2FD195113009F45BC0A3
:1041700058F1123009F482C0C111A9C08823D9F0C6
:10418000809101191816BCF040915F25509160256F
:1041900060916125709162254F5F5F4F6F4F7F4F38
:1041A00040935F255093602560936125709362254D
:1041B0008F5F8093011980914801882361F121E08C
:1041C00041E065E375E156C0C11181C08823D9F093
:1041D000809101191816BCF040915F25509160251F
:1041E00060916125709162254F5F5F4F6F4F7F4FE8
:1041F00040935F25509360256093612570936225FD
:104200008F5F809301198091480121E041E06CE4C7
:1042100075E181112FC080E0CF5FDC12A6CF85E071
:104220008093021978C0C11152C08823D9F08091BF
:1042300001191816BCF040915F25509160256091DE
:104240006125709162254F5F5F4F6F4F7F4F4093A5
:104250005F255093602560936125709362258F5F81
:10426000809301198091480121E041E065E475E106
:10427000882389F28D2F0E946AD7CDCFC11127C024
:104280008823D9F0809101191816BCF040915F2560
:104290005091602560916125709162254F5F5F4F5D
:1042A0006F4F7F4F40935F2550936025609361254A
:1042B000709362258F5F809301198091480121E0FE
:1042C00041E06EE375E1882309F4A5CFD3CFC13077
:1042D00059F580910119813091F08091480188232E
:1042E00009F499CF81E090910119913009F080E0B3
:1042F00024E04BE255E16C2D0E94B4C98CCF809133
:104300001319882351F3109213190E949B1F809157
:104310000019882311F3DF91CF911F910F91FF9026
:10432000EF90DF90CF900895C23009F055C0809192
:104330000119823081F080914801882309F46BCF04
:1043400081E090910119923009F080E023E041E290
:1043500055E16E2DD1CF80911319882361F310920E
:10436000131982E49FE10E9408DB809100198823E1
:1043700011F3D1CF80910119833081F080914801F0
:10438000882309F448CF81E090910119933009F016
:1043900080E023E048E155E16F2DAECF8091131905
:1043A000882361F31092131988E49FE10E9408DBCF
:1043B00080910019882311F3AECF809113198823BF
:1043C000A1F0109213198EE49FE10E9408DB809106
:1043D0000019882351F09FCFC33061F2C43009F037
:1043E0001ACF80910119843041F3809148018823CC
:1043F00009F411CF81E090910119943009F080E027
:1044000023E04DE055E1602F77CF68E576E280E06C
:104410000C94922063E576E281E00C9492206EE4A5
:1044200076E282E00C94922063EC74E283E00C94D8
:1044300092208091FA15811106C01092B9250E9430
:104440009B1F0E9484C980914801882339F020E095
:1044500041E06EE773E181E00E946AD782E08093D9
:1044600048010895EF92FF920F931F93CF93DF932C
:1044700061E081E00E943A1EC091031985E0F82EA8
:10448000FC0ED3E0DC1B12E01C1B01E00C1BEC2E2D
:10449000E194C1112DC0809101198823B1F0809160
:1044A0004801882359F081E090910119911180E031
:1044B00024E042E353E16E2D0E94B4C9CF5FFC12A9
:1044C000E8CF84E0809302190CC0809113198823EF
:1044D00031F3109213190E949B1F809100198823B9
:1044E000F1F2DF91CF911F910F91FF90EF9008951E
:1044F000C13061F580910119813079F080914801D6
:104500008823E1F281E090910119913009F080E077
:1045100020E246E253E1602FCFCF80911319882328
:1045200069F310921319409138175091391760911F
:1045300030177091311780913417909135170E9480
:1045400035D3809100198823C9F2CBCFC23009F04E
:1045500042C080910119823081F080914801882306
:1045600009F4ACCF81E090910119923009F080E01C
:1045700020E246E053E1612F9FCF809113198823F9
:1045800061F31092131940913817509139176FEF5A
:104590007FEF80913417909135170E9435D3809129
:1045A00000198823D1F29DCF809113198823D1F06F
:1045B00010921319409138175091391760913017A4
:1045C0007091311790E080E00E9435D380910019FE
:1045D000882341F086CFC33009F070CF8091011954
:1045E000833011F380914801882309F467CF81E07B
:1045F00090910119933009F080E020E246E153E107
:104600006D2F5ACFEF92FF920F931F93CF93DF93AB
:1046100061E081E00E943A1EC091031985E0F82E06
:10462000FC0ED3E0DC1B12E01C1B01E00C1BEC2E8B
:10463000E194C1112DC0809101198823B1F08091BE
:104640004801882359F081E090910119911180E08F
:1046500024E046E653E16E2D0E94B4C9CF5FFC1200
:10466000E8CF84E0809302190CC08091131988234D
:1046700031F3109213190E949B1F80910019882317
:10468000F1F2DF91CF911F910F91FF90EF9008957C
:10469000C13061F580910119813079F08091480134
:1046A0008823E1F281E090910119913009F080E0D6
:1046B00020E24AE553E1602FCFCF80911319882380
:1046C00069F31092131940913A1750913B1760917A
:1046D00032177091331780913617909137170E94D7
:1046E00035D3809100198823C9F2CBCFC23009F0AD
:1046F00042C080910119823081F080914801882365
:1047000009F4ACCF81E090910119923009F080E07A
:1047100020E24AE353E1612F9FCF80911319882350
:1047200061F31092131940913A1750913B176FEFB4
:104730007FEF80913617909137170E9435D3809183
:1047400000198823D1F29DCF809113198823D1F0CD
:104750001092131940913A1750913B1760913217FC
:104760007091331790E080E00E9435D3809100195A
:10477000882341F086CFC33009F070CF80910119B2
:10478000833011F380914801882309F467CF81E0D9
:1047900090910119933009F080E020E24AE453E15E
:1047A0006D2F5ACF9CE0899F802D112491E0980FA6
:1047B000909376252CE0280F2093772540914E2862
:1047C00030E02E5F3F4F4217130609F0A4F420910A
:1047D0005028921780F4662341F08E5F0E948EC3AA
:1047E000809177258E5F0E948EC3809177251092ED
:1047F0005128809352280895CF93DF931F92CDB70D
:10480000DEB780915328811105C081E08093532841
:104810000E9413C260911C2870911D2819829E016C
:104820002F5F3F4F4FE08AE198E20E94AEC10F90A8
:10483000DF91CF9108959FEF980F993020F40E9457
:104840000FD381E008950E94F0B9FBCF9FEF980F3E
:10485000993010F40C940FD30C94F0B9CF93DF93EC
:10486000EC01FE018491882321F00E9426242196E8
:10487000F8CFDF91CF910895CF93DF93EC01899129
:10488000882319F00E942624FACFDF91CF91089552
:10489000AF92BF92CF92DF92EF92FF920F931F934E
:1048A000CF93DF935C017B010E945CD7C82FC701C7
:1048B0000E94EDDA04E110E0081B1109DD24D39415
:1048C000C017110619F014F082E0D82E80911B2831
:1048D00090E06D2D70E06F5F7F4F0E9415F5C62E42
:1048E000C6E0C60F80914E28C81788F12091502845
:1048F0004C2F4B50550B241715064CF11092512894
:10490000C0935228C5010E942FBAD1E0E114F104EE
:1049100099F08AE30E94F0B952E0D5121AC0CC0D8A
:1049200080914E28C81740F0209150284C2F4B50B2
:10493000550B241715067CF4DF91CF911F910F9131
:10494000FF90EF90DF90CF90BF90AF900895D0E0B0
:10495000DDCFDD2389F3802F880F800F880F8093B0
:104960005128C093522880E20E94F0B9C701DF911C
:10497000CF911F910F91FF90EF90DF90CF90BF905C
:10498000AF900C943C248091131910921319882332
:1049900021F01092B9250C949B1F60915F257091B6
:1049A00060258091612590916225611571058105D1
:1049B000910561F10E94BCEE2091221730912317DE
:1049C00040912417509125170E941BEF2091A32599
:1049D0003091A4254091A5255091A6250E94E6F28C
:1049E0006093A3257093A4258093A5259093A62575
:1049F00083E00E94F91781E08093480110925F25BF
:104A000010926025109261251092622580914801D4
:104A1000882349F083EA95E20E94B7C6BC0184E08E
:104A200095E10C94482408953F924F925F926F92C3
:104A30007F928F929F92AF92BF92CF92DF92EF922E
:104A4000FF920F931F93CF93DF93CDB7DEB72A97D3
:104A50000FB6F894DEBF0FBECDBF9A878987362E7A
:104A600080911319109213198823E1F01092B9253F
:104A70000E949B1F2A960FB6F894DEBF0FBECDBFD3
:104A8000DF91CF911F910F91FF90EF90DF90CF902A
:104A9000BF90AF909F908F907F906F905F904F905E
:104AA0003F90089580915F2590916025A0916125A8
:104AB000B09162258D839E83AF83B887892B8A2B23
:104AC0008B2B09F454C094E0699F80011124F801F4
:104AD000E956FA4D408051806280738080912101B7
:104AE000811184C020E030E04AE754E4C301B20100
:104AF0000E94E5F24B015C0120E030E04AE754E41B
:104B0000C301B2010E94E6F26B017C016D817E81DE
:104B10008F8198850E94BCEE209122173091231737
:104B200040912417509125170E941BEFA301920179
:104B30000E94E6F22B013C018D819E81AF81B885F8
:104B4000B7FF95C0A5019401C301B2010E94B5EE63
:104B500087FD85C0F801E956FA4D40825182628294
:104B60007382832D0E94F91781E08093480110928F
:104B70005F25109260251092612510926225809128
:104B80004801882309F476CFA4E03A9EC00111249D
:104B9000FC01E956FA4D80509A4EDC012D913D9171
:104BA0004D915C9160817181828193810E94E6F2D6
:104BB00069837A838B839C832DEC3CEC4CEC5DE326
:104BC00060912217709123178091241790912517D7
:104BD0000E9469F487FD5CC0CE0101960E94B7C6B1
:104BE000BC0189859A850E94482444CFA1E06A17B8
:104BF000A1F0B2E06B1711F180900C1690900D1699
:104C0000A0900E16B0900F16C0901501D09016010E
:104C1000E0901701F090180179CF809010169090D5
:104C20001116A0901216B0901316C0901901D090D2
:104C30001A01E0901B01F0901C0168CF80901416BF
:104C400090901516A0901616B0901716C0901D01E2
:104C5000D0901E01E0901F01F090200157CFF80185
:104C6000E956FA4D80829182A282B3827ACFA7015F
:104C70009601C301B2010E9469F418160CF06ACFC4
:104C8000F801E956FA4DC082D182E282F38269CFFF
:104C900060E2CE0101960E945FC5A2CF62E08DEF77
:104CA00094E10C94142561E086EF94E10C941425B2
:104CB00060E08FEE94E10C941425809148018823E4
:104CC00031F070E060E08BEC93E10E94482484E0D6
:104CD000809348018091C8278770873039F440E07D
:104CE00050E0BA0187E796E20C94BB1E08958091CC
:104CF0004801882331F070E060E08CEB93E10E9482
:104D000048248091131910921319882321F01092CE
:104D100021170C94681F08950F931F93CF93DF936F
:104D2000CDB7DEB72A970FB6F894DEBF0FBECDBF62
:104D3000809148018823F1F01F9289E18F9380913F
:104D4000211790E001969F938F9386EA93E19F93BA
:104D50008F938E010F5F1F4F1F930F930E944CEE96
:104D6000B8018BE993E10E9448240FB6F894DEBFA6
:104D70000FBECDBF84E0809348018091FA15811168
:104D800007C040E050E0BA0185EB92E50E94BB1EEF
:104D90002A960FB6F894DEBF0FBECDBFDF91CF913C
:104DA0001F910F910895CF93DF9300D000D0CDB71E
:104DB000DEB78091131910921319882359F01092BD
:104DC000B9250E949B1F0F900F900F900F90DF91BD
:104DD000CF91089540915F255091602560916125A4
:104DE000709162254115510561057105B9F12AE0FF
:104DF000249FC001259F900D112410925F251092D1
:104E00006025109261251092622521E020934801CF
:104E100020912E1922FF0AC02091F8153091F91522
:104E2000280F391F3093F9152093F815092E000C1F
:104E3000AA0BBB0B40911C1750911D1760911E17B8
:104E400070911F17840F951FA61FB71F80931C1703
:104E500090931D17A0931E17B0931F1780914801C0
:104E6000882309F4B0CF60911C1770911D178091B1
:104E70001E1790911F170E94BCEE209114173091BD
:104E8000151740911617509117170E941BEF698351
:104E90007A838B839C8360E2CE0101960E945FC57A
:104EA000BC0187E792E10E9448248DCFCF92DF9228
:104EB000EF92FF920F93CF93DF93982F862F6A0183
:104EC0007901692F0E94D22390914E2880917725F5
:104ED000891708F445C0909150288091762598173D
:104EE00008F43EC0C701002381F00E945CD7C82FA0
:104EF000D4E1D81BF6018491882351F00E941B2431
:104F0000D81BFFEFCF1ADF0AF5CF0E94EDDAEFCF03
:104F10008AE30E94F0B9D15010F080E2FACF80917C
:104F200077259C2F990F990FC91BCC0FC058C093A0
:104F3000512880935228C701002349F0DF91CF9177
:104F40000F91FF90EF90DF90CF900C942E24DF9183
:104F5000CF910F91FF90EF90DF90CF900C943C2475
:104F6000DF91CF910F91FF90EF90DF90CF90089558
:104F70003F924F925F926F927F928F929F92AF92E9
:104F8000BF92CF92DF92EF92FF920F931F93CF9336
:104F9000DF9361E081E00E943A1EC0910319DC2F8B
:104FA00055E0352E3C0E89E0B82EBC1A88E0A82EBC
:104FB000AC1A6DEF862E65E1962E87E0782E7C1A6E
:104FC00086E0682E6C1A85E0582E5C1A84E0482E24
:104FD0004C1AC11186C080910119882309F461C05F
:104FE00080914801882361F06D2F619581E0909157
:104FF0000119911180E024E045E656E10E94B4C910
:105000002CEA35EC47E25EE36091201670912116A0
:1050100080912216909123160E9469F360932C17B9
:1050200070932D1780932E1790932F172CEA35EC41
:1050300047E25EE360911C1670911D1680911E166A
:1050400090911F160E941BEF6093281770932917E9
:1050500080932A1790932B17C43009F077C1809161
:105060000119843009F454C180914801882391F0DA
:1050700011E080910119843009F010E088E196E197
:105080000E94FFC300E09C014FE256E1642D812F96
:105090000E945627CF5F3C129CCF8AE08093021972
:1050A0000EC080911319882309F49ACF1092131916
:1050B0000E949B1F80910019882309F491CFDF91F2
:1050C000CF911F910F91FF90EF90DF90CF90BF9005
:1050D000AF909F908F907F906F905F904F903F9098
:1050E0000895C13009F09BC080910119813009F405
:1050F00073C080914801882329F180EC97E19F9348
:105100008F9381E08F9393E19F931F921F922EE0E4
:1051100038E23F932F9327E536E13F932F938D1B82
:105120008F9381E090910119913009F080E08F9385
:105130000E941AC88DB79EB70C960FB6F8949EBF02
:105140000FBE8DBF2CEA35EC47E25EE3609120167E
:105150007091211680912216909123160E9469F376
:1051600060932C1770932D1780932E1790932F1701
:105170002CEA35EC47E25EE360911C1670911D1637
:1051800080911E1690911F160E941BEF60932817A6
:105190007093291780932A1790932B17C73009F41F
:1051A00048C1C83009F495C1C93009F073CF809166
:1051B0000119893009F4B2C180914801882309F4AA
:1051C00069CF81E090910119993009F080E023E0E6
:1051D0004BED55E16B2D90C180911319882309F493
:1051E00088CF10921319C093111910920D191092B3
:1051F0000E1910920F191092101900EC17E123E10B
:1052000031E050E040E06EE078E28EE596E10E9409
:1052100084BD80910019882309F46BCF50CFC23030
:1052200009F08DC180910119823059F180914801B6
:10523000882309F487CF8EE29FE29F938F931F927A
:1052400089E68F931F921F9282E795E29F938F9337
:105250008FE496E19F938F9382E08D1B8F9381E083
:1052600090910119923009F080E08F930E941AC842
:105270008DB79EB70C960FB6F8949EBF0FBE8DBF2C
:10528000BFCE80911319882389F21092131981E0FF
:105290008093111910920D1910920E1910920F1976
:1052A000109210190EE21FE229E630E050E040E0D3
:1052B00062E775E283E596E10E9484BD8091001962
:1052C000882309F4B3CFFBCE80911319882309F406
:1052D0003EC11092131981E08093111910920D199B
:1052E00010920E1910920F191092101910E000E090
:1052F0002FEF30E050E040E064E775E285E496E1AE
:105300000E9484BD80910019882309F420C1D7CE62
:1053100080911319882309F4A7CE10921319D12C68
:10532000C12CE12C18E1F12E0CE116E420E030E074
:1053300040E85FE368E176E185E396E10E94E5BD40
:1053400080910019882309F48FCEB9CEC530B9F504
:10535000809101198530A9F080914801882309F4D2
:1053600099CE11E080910119853009F010E08CE2AE
:1053700097E10E94FFC300E09C0143E256E1652DE6
:1053800086CE80911319882339F31092131927E7D9
:10539000C22E26E1D22EE12C18E1F12E0CE116E40A
:1053A0002AE037ED43E25CE36CE277E189E296E1E3
:1053B0000E94E5BD80910019882371F280CEC6302D
:1053C00009F0ECCE809101198630A9F08091480156
:1053D000882309F45FCE11E080910119863009F02D
:1053E00010E088E297E10E94FFC300E09C0147E1E2
:1053F00056E1662D4CCE80911319882339F3109213
:10540000131980E6C82E86E1D82EE12C18E1F12E82
:105410000CE116E420E030E040E85FE368E277E189
:105420008DE196E10E94E5BD80910019882371F21B
:1054300046CE80910119873049F180914801882337
:1054400009F428CE82EC97E19F938F9381E08F93AC
:1054500083E18F931F9286E98F9382E291E09F937D
:105460008F939F928F927F9281E090910119973054
:1054700009F080E08F930E941AC88DB79EB70C96F2
:105480000FB6F8949EBF0FBE8DBF04CE8091131946
:10549000882399F21092131981E0809311191092C8
:1054A0000D1910920E1910920F191092101902EC8A
:1054B00017E123E131E046E950E062E271E08AE081
:1054C00096E10E9484BD80910019882309F4B5CF2C
:1054D000F6CD80910119883091F0809148018823A0
:1054E00009F4D8CD81E090910119983009F080E05D
:1054F00023E04CEE55E16A2D0E94B4C9CBCD8091DA
:105500001319882351F3109213198EEC99EB0E9412
:1055100008DB80910019882301F3D1CD8091131904
:10552000882309F449CE109213198BEC99EB0E9451
:1055300008DB80910019882309F43ECEC0CDC3302A
:1055400009F05ECD80910119833009F4BDCE8091C0
:105550004801882309F4F6CD1F928FEF8F931F9295
:105560001F9284E795E29F938F938BE396E19F933D
:105570008F9383E08D1B8F9381E09091011993307D
:1055800009F080E08F930E941AC88DB79EB70A96E3
:105590000FB6F8949EBF0FBE8DBF32CD2F923F92B3
:1055A0004F925F926F927F928F929F92AF92BF9233
:1055B000CF92DF92EF92FF920F931F93CF93DF93DF
:1055C00000D000D0CDB7DEB761E081E00E943A1E86
:1055D000809103198B838C83982F9B5F998387E03D
:1055E0009B81891B8A8385EBC82E82E1D82E86E0B9
:1055F000282E291A85E0382E391A84E0F82EF91A57
:1056000028E1822E2CEF922EAA24AA94BA2C30EDF7
:10561000432E37E0532E612C712C82E0E82EE91ADC
:105620008B81811139C080910119882391F080917B
:105630004801882309F48EC06C81619581E09091C6
:105640000119911180E024E041E053E10E94B4C9C6
:1056500081C080911319882351F3109213190E946D
:105660009B1F80910019882311F30F900F900F90CA
:105670000F90DF91CF911F910F91FF90EF90DF90EE
:10568000CF90BF90AF909F908F907F906F905F90E2
:105690004F903F902F9008959B819130D9F5809144
:1056A0000119813001F180914801882309F452C029
:1056B00083E08F9387EE8F931F928AE08F9383E12D
:1056C00091E09F938F9385EF92E19F938F9381E079
:1056D0009C81891B8F9381E090910119913009F48D
:1056E0006CC180E06AC1809113198823E1F21092A5
:1056F000131910E000E027EE33E04AE050E063E1E8
:1057000071E08BEF92E10E9484BD809100198823A3
:1057100051F2ABCF9B81923009F003C28091011905
:10572000823009F443C080914801882399F011E048
:1057300080910119823009F010E060E28BEF95E171
:105740000E945FC500E09C0149EE52E16E2D812F61
:105750000E94562780910E2890910F288A3A910531
:105760000CF4B6C19B819830B9F48091011988304E
:1057700009F499C180914801882371F068E08C8117
:10578000681B81E090910119983009F080E020E2D7
:1057900042E952E10E94B4C99B819F5F9B8389814A
:1057A00089133ECF89E0809302195FCF809113194E
:1057B000882309F4B8CF109213190E949B1E83E02E
:1057C000809348018FEE92E190936E2580936D2532
:1057D0008BEF95E190936C2580936B2580926725E4
:1057E00090926825A0926925B0926A25409263251F
:1057F00050926425609265257092662520E030E025
:105800004AE754E46091FB157091FC158091FD15F9
:105810009091FE150E941BEF20E030E04AE754E42F
:105820000E94E6F20E94E2F360935F257093602588
:10583000809361259093622585EF95EC90934001CC
:1058400080933F01109271251092702510926F2560
:1058500080910019882309F466CF07CF8091011940
:10586000833019F180914801882309F473CF80ECCB
:1058700097E19F938F9381E08F9383E18F931F92A2
:105880001F928EE098E29F938F938BED92E19F930E
:105890008F9383E09C81891B8F9381E09091011904
:1058A000933009F446C080E044C0809113198823E6
:1058B000C9F21092131981E08093111910920D19F9
:1058C00010920E1910920F191092101900EC17E196
:1058D00023E131E050E040E06EE078E282EE92E1D8
:1058E0000E9484BD80910019882309F4BBCFBDCEEE
:1058F00080910119843009F180914801882309F4CD
:1059000029CF8EE29FE29F938F931F9289E68F9318
:105910001F921F9282E795E29F938F9383ED92E10E
:105920009F938F93FF9281E090910119943009F039
:10593000BACF8F930E941AC843C08091131988234D
:10594000D9F21092131981E08093111910920D1958
:1059500010920E1910920F19109210190EE21FE2F8
:1059600029E630E050E040E062E775E287ED92E141
:105970000E9484BD80910019882309F4BDCF75CEA3
:1059800080910119853011F180914801882309F433
:10599000E1CE1F928FEF8F931F921F9284E795E2C3
:1059A0009F938F938FEB92E19F938F933F9281E030
:1059B00090910119953009F094CE8F930E941AC8E6
:1059C0000FB6F894DEBF0FBECDBFC4CE80911319C1
:1059D0008823D1F21092131981E08093111910924B
:1059E0000D1910920E1910920F191092101910E043
:1059F00000E02FEF30E050E040E064E775E289EC32
:105A000092E10E9484BD80910019882309F4BCCFE3
:105A10002CCE809101198630F1F0809148018823C5
:105A200009F498CE8EE896E19F938F9383E08F934D
:105A300087EE8F931F928AE08F9381E191E09F938D
:105A40008F93DF92CF922F9281E09091011996303F
:105A500009F029CF6ECF809113198823F1F21092AB
:105A600013190EE816E127EE33E04AE050E061E159
:105A700071E08AEB92E10E9484BD80910019882335
:105A800061F2F3CD80911319882309F45FC010925D
:105A9000131981E89FE10E9408DB80910019882397
:105AA00009F454C0E2CD80911319882309F462CE21
:105AB0001092131982EA92E19093792580937825C8
:105AC0000E94AF8980910019882309F453CECDCD6F
:105AD0009B81983009F060CE80910119883091F057
